:100000000C9486040C94CD040C94CD040C94CD0473
:100010000C94CD040C94CD040C94CD040C94CD041C
:100020000C94CD040C94CD040C9453210C942722F1
:100030000C9403190C94CD040C94CD040C94CD04B1
:100040000C94CD040C94CD040C94CD040C94CD04EC
:100050000C94CD040C945A190C94CD040C94CD043A
:100060000C94CD040C94CD040C94CD040C94CD04CC
:100070000C94CD040C94CD040C94CD040C94CD04BC
:100080000C94CD040C94CD040C94CD040C94CD04AC
:100090000C94CD040C94CD040C94CD040C94CD049C
:1000A0000C94CD040C94CD040C94CD0406000600F1
:1000B00018000000180010000000100006000000EA
:1000C00018000000180010001000100006000600C4
:1000D00018001800180010000000100001000100B6
:1000E000010000000100010000000100010000000B
:1000F00001000000010001000100010001000100F9
:1001000001000100010001000000010001000100E8
:1001100001000000010001000000010001000000DA
:1001200001000000010001000100010001000100C8
:1001300001000100010001000000010001000100B8
:1001400001000000010001000000010001000000AA
:100150000100000001000100010001000100010098
:10016000010001000100010000000100444542556A
:10017000473A2064697361626C65642E0A004445E5
:100180004255473A20656E61626C65642E0A000A2A
:100190000025303862003A200025303258000A72BB
:1001A0002F632030313233343536370A000A0025C8
:1001B00030325820006B6579626F6172645F7265DE
:1001C000706F72743A20000A0025303258006B6557
:1001D00079626F6172645F7365745F6C65643A2005
:1001E0000064656C5F6B65795F6269743A20636176
:1001F0006E27742064656C3A20253032580A0061FD
:1002000064645F6B65795F6269743A2063616E272D
:1002100074206164643A20253032580A003F00435C
:100220003E20004C25640A0074696D65725F72653A
:100230006164333228293A202530346C580A006B27
:1002400065796D61705F636F6E6669672E6E6B7244
:100250006F3A2025580A006B6579626F6172645F9E
:1002600069646C653A2025580A006B6579626F6194
:1002700072645F70726F746F636F6C3A2025580AF6
:1002800000686F73745F6B6579626F6172645F6C35
:1002900065647328293A2025580A000A092D20533D
:1002A0007461747573202D0A004743433A20382E39
:1002B000342E30204156522D4C4942433A20322EA2
:1002C000302E30204156525F415243483A206176E9
:1002D00072350A004F5054494F4E533A204C554600
:1002E000412045585452414B455920434F4E534F9E
:1002F0004C4520434F4D4D414E44204E4B524F20D4
:10030000343039360A004255494C443A2022302EC6
:1003100031302E35312D322D67306465653333220F
:10032000202832323A31323A30332046656220207A
:10033000382032303231290A005649443A20307888
:1003400034433437284C6667626572672920504908
:10035000443A203078303030312843756D70616414
:1003600029205645523A203078303030310A000A80
:10037000092D2056657273696F6E202D0A000A09D7
:100380002D20436F6E736F6C65202D0A4553432FEC
:10039000713A09717569740A000A092D204D616767
:1003A0006963202D0A443A094465627567204D65EA
:1003B000737361676520546F67676C650A583A0903
:1003C0004D6174726978204465627567204D6F6471
:1003D0006520546F67676C65202D2053686F772008
:1003E0006B65797072657373657320696E206D61DA
:1003F0007472697820677269640A4B3A094B6579AF
:10040000626F61726420446562756720546F67672C
:100410006C65202D2053686F77206B65797072654D
:100420007373207265706F72740A4D3A0944656285
:100430007567204D6F75736520546F67676C650A2B
:10044000563A0956657273696F6E0A533A095374C6
:10045000617475730A433A0941637469766174651E
:1004600020436F6E736F6C65204D6F64650A463173
:100470002D4631303A0953776974636820746F20D0
:100480004C6179657220302D392028463130203D6D
:10049000204C30290A302D393A0953776974636842
:1004A00020746F204C6179657220302D390A4752D3
:1004B0004156453A0953776974636820746F204C3C
:1004C0006179657220302028616C7465726E617488
:1004D00065290A423A094A756D7020746F20426F8F
:1004E0006F746C6F616465720A4553433A094A75CB
:1004F0006D7020746F20426F6F746C6F61646572F1
:100500002028616C7465726E617465290A453A0928
:100510005072696E7420454550524F4D205365749A
:1005200074696E67730A4253504143453A09436CFC
:1005300065617220454550524F4D0A4E3A094E4B67
:10054000524F20546F67676C650A000A00257500DA
:100550002E6E6B726F3A20000A002575002E73779D
:1005600061705F6261636B736C6173685F6261632A
:100570006B73706163653A20000A002575002E7365
:100580007761705F67726176655F6573633A2000BB
:100590000A002575002E6E6F5F6775693A20000AA4
:1005A000002575002E737761705F72616C745F72E5
:1005B0006775693A20000A002575002E737761700F
:1005C0005F6C616C745F6C6775693A20000A002586
:1005D00075002E737761705F7263746C5F726775FC
:1005E000693A20000A002575002E737761705F6CF0
:1005F00063746C5F6C6775693A20000A00257500AA
:100600002E636170736C6F636B5F746F5F636F6E8B
:1006100074726F6C3A20000A002575002E737761A2
:10062000705F636F6E74726F6C5F636170736C6F19
:10063000636B3A20000A0025303258006B65796DF3
:1006400061705F636F6E6669672E7261773A200032
:100650000A002575002E6D6F7573653A20000A003B
:100660002575002E6B6579626F6172643A20000A0D
:10067000002575002E6D61747269783A20000A00B9
:100680002575002E656E61626C653A20000A0025B2
:100690003032580064656275675F636F6E666967C4
:1006A0002E7261773A20000A002575006465666144
:1006B000756C745F6C617965723A20003F004E4B37
:1006C000524F3A206F66660A004E4B524F3A206FE7
:1006D0006E0A000A6D6F7573653A206F66660A00D0
:1006E0000A6D6F7573653A206F6E0A000A6B657943
:1006F000626F6172643A206F66660A000A6B657900
:10070000626F6172643A206F6E0A000A6D617472E2
:1007100069783A206F66660A000A6D6174726978BA
:100720003A206F6E0A000A64656275673A206F6648
:10073000660A000A64656275673A206F6E0A000AED
:100740000A4A756D70696E6720746F20626F6F74EE
:100750006C6F616465722E2E2E2000433E20004394
:100760006C656172696E6720454550524F4D0A00B5
:100770006565636F6E6669673A0A005B735D004B7F
:100780006579626F6172642073746172742E0A00FD
:100790005B575D005B535D005B525D005B445D0039
:1007A0005B435D000403300000000E03430075004E
:1007B0006D00700061006400000010034C006600D2
:1007C000670062006500720067000000040309040E
:1007D00009025B00030100A0FA0904000001030103
:1007E00001000921110100012240000705810308D1
:1007F000000A0904010001030000000921110100A1
:1008000001226D000705820320000A09040200028C
:1008100003000000092111010001222200070583C5
:10082000032000010705030320000112011001004D
:10083000000008474C01000100010203010631FFDE
:100840000974A1010975150026FF0095207508811E
:10085000020976150026FF00952075089102C00553
:10086000010980A101850319012AB700150126B7E6
:1008700000950175108100C0050C0901A1018504D6
:1008800019012AA002150126A00295017510810008
:10089000C005010906A1018505050719E029E7152D
:1008A0000025019508750181020507190029EF153A
:1008B00000250195F07501810205081901290595AA
:1008C0000575019102950175039101C005010906A5
:1008D000A101050719E029E7150025019508750113
:1008E00081029501750881010507190029FF15008E
:1008F00026FF009506750881000508190129059550
:100900000575019102950175039101C011241FBE67
:10091000CFEFDAE0DEBFCDBF04B603FE27C0809183
:10092000530290915402A0915502B0915602873023
:10093000904BA740B04BD1F4109253021092540246
:10094000109255021092560214BE84B7877F84BF5E
:100950000FB6F894A895809160008861809360003C
:10096000109260000FBEE0E0F8E3099511E0A0E00E
:10097000B1E0EAE2F9E402C005900D92AA38B107AD
:10098000D9F722E0AAE8B1E001C01D92A335B20771
:10099000E1F70E94881E0C942C240C940000FF9315
:1009A000EF93E0918A01F0918B01309709F009955E
:1009B000EF91FF910895FC018591803011F0EFDFF8
:1009C000FBCF0895FF27E0E230E247FF0CC04195DE
:1009D00097FF09C0EDE26095709580959095611D37
:1009E000711D811D911D27FF02C0219530E350E24A
:1009F000AA27660F771F881F991FAA1FA41710F038
:100A0000A41B63955A95A9F7AA3008F0A95FA05DC9
:100A1000AF93F395611571058105910541F7ED32AD
:100A200011F4EF93F395F21718F43F93F395FBCF7E
:100A30008F91B5DFFA95E1F70895E991F9918591E4
:100A4000803021F0853219F0AADFF9CF089520E037
:100A5000E89455915532C1F3503311F4689455918F
:100A60005A3348F4505390F3220F022E220F220FD4
:100A7000200D250FF4CF0EF42195899199915336CD
:100A800019F3533729F1533559F1BC0188279927B8
:100A9000E8945C3621F48991999168945591543683
:100AA00039F446EF7EF077FF0DC08FEF9FEF0AC05D
:100AB00055374AE039F0583540E121F0523642E0EE
:100AC00009F00895FF93EF937DDFEF91FF91B7CF8A
:100AD000FF93EF93FC0181918030B9F360DFFBCF8E
:100AE000FF93EF9368DFF1CFDF93CF93CDB7DEB7FE
:100AF0002596A3DFCF91DF91089581E0089581E0ED
:100B000008950C947F0508950C9483051F93CF934B
:100B1000DF9300D000D00F92CDB7DEB749835A8360
:100B20006B8330919D0189819A8131111DC06623AB
:100B3000B9F02223A9F00E94C615182F682F8981C9
:100B40009A810E94711569817A81812F0F900F908F
:100B50000F900F900F90DF91CF911F910C944E0644
:100B60000E949E15182FEFCF0E94C61569817A81C9
:100B7000EDCFFC01262F40815181628173818481F8
:100B80000C948605CF93DF93EC0160E00E94B905D9
:100B9000BE01DF91CF910C9484050E9491190E94AF
:100BA0002D17811102C00E94CA170C9452080C9490
:100BB000550808950E94D7100E94D9052FEF84E3AD
:100BC0009CE0215080409040E1F700C000000C9470
:100BD0007E190F931F93CF93DF93EC0161E00E9486
:100BE000B9058C01BE010E948105882311F1BE0167
:100BF000C8010E94360A8823E1F0BE01C8010E94A4
:100C0000880A8823B1F0BE01C8010E94AB0B88237B
:100C100081F08A81882341F101308CE5180779F051
:100C20000E3D8CE51807E9F001151C45E9F40E941A
:100C3000DA0580E0DF91CF911F910F910895909197
:100C40001202892F8E7F90FF81608093120280FFB5
:100C500005C08EE791E00E94DB04EBCF8CE691E0CB
:100C6000FACF0E94CA17E5CFCE01DF91CF911F9135
:100C70000F910C947D0508950C943B0681E0089536
:100C80000C943E06CF93C82F0E943C068C2FCF9128
:100C90000C94400690E080E008950895E72FF0E07E
:100CA00093E0899FE00DF11D112483E0EE0FFF1FFB
:100CB0008A95E1F7E60FF11DEE0FFF1FE455FF4F98
:100CC000859194910895FC01EE0FFF1FE157FE4FAF
:100CD000859194910895CF93DF930E944E060E94D0
:100CE0007707EC01811520E5920708F041C08115D6
:100CF00030E4930708F0B4C0803E910518F5803CBD
:100D0000910508F09DC0883A910570F4853A9105E7
:100D100008F08EC081309105F9F00097E9F0049752
:100D2000D8F4D0E0C0E018C08F3B9105D0F7C85A86
:100D3000D0E0CC0FDD1FC35FDE4F0990D881C02DFE
:100D4000D4640AC08115904258F4C11581E0D807D7
:100D500018F4C83ED10528F7CE01DF91CF91089550
:100D6000C11590E3D90708F071C0CE019F706AC029
:100D7000811525E5920758F5811534E5930708F0AC
:100D80009EC0811542E5940750F4C11581E5D8074E
:100D900008F469C0DC2FCC27C16FD06ADDCF982F53
:100DA000969596959E0123703327C115D34508F07B
:100DB00077C0C1E0D0E002C0CC0FDD1F2A95E2F77A
:100DC00020E2929FC0011124C82BD92B67C0C11506
:100DD00089E5D807A8F4C11598E5D90708F074C0CB
:100DE000C11526E5D20708F09CCF8C2F0E940E0873
:100DF000C82FD0E0DC2FCC27CC27DF71D062ACCF5E
:100E0000C1153AE5D30708F464C0CE0190568115A8
:100E1000904208F086CF8D2F8F710E940E0890E0CF
:100E2000982F882788279F719C012C2BE901E6CFFA
:100E3000C55AD0E0C55CDE4FC881D0E0D0648CCF0D
:100E4000805C91090E946306EC0186CFCE01992750
:100E5000D3FF03C0EC01D86C7FCFEC01D06C7CCF0A
:100E6000DF70D06A79CFCE01E4E096958795EA9558
:100E7000E1F783702C2F26952695237090E2299F09
:100E800090011124382B8C2F8370C1E0D0E002C078
:100E9000CC0FDD1F8A95E2F7C22BD32BDC685CCF29
:100EA000C1E0D0E002C0CC0FDD1F2A95E2F730E2AE
:100EB000939FC0011124C82BD92BDA684DCFD82FAE
:100EC000CC27C46FD06A48CFDC2FCC27C06FD06A44
:100ED00043CF8C2F8F700E940E0834E0D695C795B3
:100EE0003A95E1F7CF709C2FEC01D06935CF82386D
:100EF0009105B1F1B0F48133910509F475C048F45E
:100F00008932910509F469C08A32910509F473C0E8
:100F100008958533910509F459C08933910501F18C
:100F20000895833E9105A9F138F4803E9105F9F0CA
:100F3000823E910549F10895863E9105A9F1873ECB
:100F40009105C9F1843E910519F52091450221FFD3
:100F50001FC08091440284FD14C087EE90E0089584
:100F6000209144022370A1F080EE90E0089520913A
:100F7000440220FD47C03091450230FF09C024FFE4
:100F800044C090E080E004C02091440222FDF7CFED
:100F900008952091440222FD3BC03091450230FD6E
:100FA000E3CF24FFF5CFEDCF2091440223FFF0CF14
:100FB00024FDE7CFD2CF2091440223FD2CC03091F5
:100FC000450231FFEECF84EE90E008952091440277
:100FD00025FFDECF89E290E008952091440225FFAD
:100FE000D7CF85E390E008952091440226FFD0CF2B
:100FF0008AE290E008952091440226FFC9CF81E360
:1010000090E0089589E390E0089583EE90E00895DC
:1010100082EE90E0089586EE90E00895909144026B
:1010200092FF06C0282F28712830F9F4877F84604A
:1010300093FF06C0282F28712831F1F4877E846140
:101040002091450220FF06C0382F38713830D9F47E
:10105000877F816021FF06C0282F28712831D1F4B5
:10106000877E816194FD877E0895282F2471243026
:10107000F9F68B7F8860DCCF282F2471243101F7AB
:101080008B7E8861DDCF382F3171313019F78E7F3B
:101090008860E0CF282F2171213121F78E7E886171
:1010A000E1CF08950C94510808950C945408E82F4A
:1010B000F0E0E35CFD4F80810895CF92DF92EF92E4
:1010C000FF920F931F93CF93DF938EE991E00E94DD
:1010D000DB048DE3E82E82E0F82ED0E0C0E099E951
:1010E000C92E91E0D92E01E911E0DF93CF93DF9271
:1010F000CF920E94740586E991E00E94DB04F7011B
:1011000081917F010E940F171F928F931F930F935E
:101110000E9474058FE891E00E94DB0421968DB750
:101120009EB708960FB6F8949EBF0FBE8DBFC33012
:10113000D105D9F6DF91CF911F910F91FF90EF90DC
:10114000DF90CF90089580EA8A95F1F70895CF93C4
:10115000DF93A6E4B1E049E451E0C1E0D0E08D9135
:10116000E82FE295EF70F0E061A18F709E0101C061
:10117000220F8A95EAF7922F9095962391A382A148
:10118000822B82A34A175B0751F7AEE3B1E046E436
:1011900051E0C1E0D0E08D91E82FE295EF70F0E0F2
:1011A00061A18F709E0101C0220F8A95EAF7922FEC
:1011B0009095962391A382A1822B82A34A175B0765
:1011C00051F710923A0210923D0210923B02109297
:1011D0003E0210923C0210923F0283E00E9474098A
:1011E000DF91CF910C94CD058F929F92AF92BF92D9
:1011F000CF92DF92EF92FF920F931F93CF93DF93E3
:1012000086E4A82E81E0B82E0AE312E0912CCC24CB
:10121000C394D12CF50181915F01C82FC295CF7085
:10122000D0E099A18F70760101C0EE0C8A95EAF7A3
:10123000892F8E2989A38AA18E2C809488218AA344
:101240000E94A308EEE3F1E050E040E020E031919D
:10125000A32FA295AF70B0E090968C9190E03F7074
:1012600002C0959587953A95E2F780FD39C08C2D9F
:10127000042E01C0880F0A94EAF7282B4F5F5F4FB6
:101280004830510521F789A1882289A28AA1E82A3C
:10129000EAA2F8018081281729F1208381E0982AA9
:1012A0000F5F1F4FF9E4AF16F1E0BF0609F0B2CFB0
:1012B000292D43E06DE372E08AE392E00E94750914
:1012C0000E94D705892DDF91CF911F910F91FF903B
:1012D000EF90DF90CF90BF90AF909F908F90089548
:1012E00080E0CBCF80E0DBCF0895FF920F931F9378
:1012F000CF93DF93F82E092F162FD72FC42F222339
:1013000049F081E080938E010E94331990938D0102
:1013100080938C0180918E018823A1F080918C01B3
:1013200090918D010E944B19069760F0EF2DF02FE0
:10133000A12FBD2FCE0FDF2FD11DEC17FD0741F4DC
:1013400010928E01DF91CF911F910F91FF90089520
:1013500081918D93F2CFAF92BF92CF92DF92EF92B5
:10136000FF920F931F93CF93DF937C015B01C42FF8
:10137000D22FFC0182818823F9F0409391010E94D1
:1013800033199093900180938F0180E28C0F883005
:1013900008F061C0C77081E001C0880FCA95EAF704
:1013A000DF91CF911F910F91FF90EF90DF90CF9041
:1013B000BF90AF900C946A0E10919101141340C02D
:1013C00080918F01909190010E944B196C01B7019F
:1013D000C5010E944E13C816D90690F5C0E2CD0F84
:1013E0001D17B9F080E2810F883040F4177081E05A
:1013F00001C0880F1A95EAF70E94710EC83048F4B0
:1014000081E09D2F977001C0880F9A95EAF70E949E
:101410006A0E802F0E94570EC830E8F4D77081E022
:1014200001C0880FDA95EAF7DF91CF911F910F91F4
:10143000FF90EF90DF90CF90BF90AF900C94710E23
:1014400080E28C0F883038F4C77081E001C0880FCB
:10145000CA95EAF7E9CFDF91CF911F910F91FF90E5
:10146000EF90DF90CF90BF90AF9008950F939C01C5
:10147000CB01233F4CE5340759F1A8F4283DFCE5A6
:101480003F0701F1293D4CE53407D1F1273D3C45AB
:1014900091F406E221EE41EE67ED7CE50E94AB0996
:1014A00080E00F910895253FFCE53F07E9F0B0F09B
:1014B000263F3C45F9F0FC018281882339F11092E6
:1014C0009101EFCF07E225EE45EE68ED7CE5E6CF32
:1014D00006E221EE40EE63EF7CE5E0CF07E225EE89
:1014E00044EE64EF7CE5DACF06E221EE42EE65EFF2
:1014F0007CE5D4CF07E225EE46EE66EF7CE5CECF65
:1015000008E221E045EE69ED7CE5C8CF81E0C9CF76
:10151000CF93DF93EC01FB018281882309F419C189
:10152000C230FCE5DF07C0F1C6319CE5D90730F0D9
:101530009E012A5F3C452930310570F50E94401715
:101540009093450280934402C031ECE5DE0709F434
:10155000CFC008F05BC0C8308CE5D80709F4B6C02E
:1015600088F5C430ECE5DE0709F4A8C0C0F4C23049
:101570008CE5D80709F49CC0809144028260C33096
:10158000DC4509F498C080914402909145020E9484
:101590004E170E94D71080E0DF91CF91089580917F
:1015A00044028061C630ECE5DE0709F484C0809116
:1015B00044028860C730DC4508F47DC08091440255
:1015C000806279C0CC308CE5D80709F489C070F40A
:1015D000809144028C60CA30ECE5DE0709F46BC0F0
:1015E00008F478C0809144028E7F65C0CE308CE5CF
:1015F000D80709F479C0809144028B7FCF30DC4555
:1016000008F459C0809144028F7E55C0CB3FECE571
:10161000DE0709F457C030F5C3318CE5D80709F46B
:101620006FC078F4C131ECE5DE0709F465C0C23162
:10163000DC4509F0A8CF0E94D710809144028F7733
:101640003AC0C5318CE5D80709F462C008F476C009
:10165000809145028160CA3FDC4509F094CF8093B8
:10166000450291CFCF3FFCE5DF0709F44DC088F478
:10167000809145028D7FCD3F9CE5D90781F3809114
:1016800045028E7FCE3FDC4550F38091450283605A
:10169000E6CFC130FDE5DF0709F459C008F444C0C6
:1016A00080E0C230DD4509F06ECF0E94CC176BCFD1
:1016B0008091440281608093440265CF809144020E
:1016C0008460F9CF809145028260C9CF8091440245
:1016D0008064F1CF0E94D710809144028068EBCFE4
:1016E000809144028D7FE7CF80914402877FE3CFD2
:1016F000809144028F7DDFCF809144028F7BDBCFCE
:1017000080914402837FD7CF809145028C7FA7CF01
:101710008091440282FB992790F921E0922790FB67
:1017200082F990FB83F9C7CF80914502982F90955D
:1017300091708E7F892B90FB81F991CF0E94D710F9
:1017400090914402892F97FB87F98058B4CF81E0AC
:10175000ACCF81E021CFCF93DF93EB0186319C4565
:1017600011F50E945B169A81992399F08A7A91E08B
:1017700009F490E090939201811109C089E20E94DE
:1017800036160E94A71680E0DF91CF91089585E379
:10179000F6CF80919201811104C089E20E943D162A
:1017A000F0CF85E3FBCF81E0EFCF9093980180935A
:1017B00097010895E0919701F0919801309721F0F9
:1017C0000190F081E02D099480E00895EF92FF925E
:1017D0000F931F93CF93DF93EC01E0919701F0916A
:1017E0009801309709F446C080910C01882341F09C
:1017F0008091440287FF04C08881898385E08883C3
:101800000280F381E02DCE0109958091120282FFC2
:1018100031C080FF04C085EB91E00E94DB0410E042
:1018200000E08FEAE82E81E0F82E8091120280FF1E
:101830000EC0FE01E00FF11F80811F928F93FF9277
:10184000EF920E9474050F900F900F900F900F5F12
:101850001F4F0830110549F78091120280FF0AC01E
:101860008DEA91E0DF91CF911F910F91FF90EF9062
:101870000C94DB04DF91CF911F910F91FF90EF90BB
:10188000089520919501309196012817390771F03C
:101890009093960180939501E0919701F0919801C2
:1018A000309721F00680F781E02D0994089520916A
:1018B0009301309194012817390771F090939401A6
:1018C00080939301E0919701F0919801309721F076
:1018D0000084F185E02D0994089585B7806885BF5F
:1018E00085B7806885BF0895089508950C94740C99
:1018F00008950C94780C0E946D0C0E94750C0C9449
:10190000760C81E008950C94810C0E942A190E94A3
:10191000A7080E94A5190C94790CCF93C82F809129
:10192000120282FF1EC080FF1CC08EEC91E00E945C
:10193000DB048091120280FF14C01F92CF9389ECC8
:1019400091E09F938F930E947405809112020F90F3
:101950000F900F900F9080FF04C087EC91E00E94E1
:10196000DB048C2FCF910C944206BF92CF92DF9272
:10197000EF92FF920F931F93CF93DF93CDB7DEB714
:101980002A970FB6F894DEBF0FBECDBF0E94F408B1
:101990000E94830C882309F45CC08AE9C82E81E088
:1019A000D82E10E000E0B02E802F0E945708E82EBD
:1019B000F601F1906F01F81609F445C0809112020A
:1019C00081FD0E945D089F2D9E2580E0FF24F394F9
:1019D000292F2F21A1F18E83BF82EF2081E009F40E
:1019E00080E088870E9433198160782F9A878987E1
:1019F0004E815F8168858A850E944A0DF801E6560E
:101A0000FE4F8081F826F0820E94DA0B90919901B6
:101A1000891781F10E94DA0B809399012A960FB6FB
:101A2000F894DEBF0FBECDBFDF91CF911F910F9114
:101A3000FF90EF90DF90CF90BF900C948D0C8F5F54
:101A4000FF0C883029F60F5F1F4F0330110509F096
:101A5000AACF8FEF89838A831B820E94331981600A
:101A6000782F9D838C8349815A816B818D810E945F
:101A70004A0DCACF2A960FB6F894DEBF0FBECDBF6F
:101A8000DF91CF911F910F91FF90EF90DF90CF905A
:101A9000BF900895CF93DF93CDB7DEB72B970FB6E6
:101AA000F894DEBF0FBECDBF4F83588769877A8712
:101AB0008B871E821D8285E0FE013796DE0111961E
:101AC00001900D928A95E1F749815A816B817C8161
:101AD0008D819E812B960FB6F894DEBF0FBECDBFD1
:101AE000DF91CF910C945113FC01808191810C9472
:101AF0000816CF93C82F882309F488C08238C1F410
:101B00000E94DA0B81FD82C089E30E9436160E9492
:101B1000A7162FEF81EE94E0215080409040E1F72E
:101B200000C0000089E30E943D16CF910C94A716D7
:101B30008338A1F40E94DA0B80FD68C083E50E941F
:101B400036160E94A7162FEF81EE94E021508040B8
:101B50009040E1F700C0000083E5E5CF8438A1F4B0
:101B60000E94DA0B82FD52C087E40E9436160E9462
:101B7000A7162FEF81EE94E0215080409040E1F7CE
:101B800000C0000087E4CFCF8CEF8C0F813AB8F40F
:101B90008C2F0E94361C811139C06C2F809100015E
:101BA000909101010E94E517882329F08C2F0E9453
:101BB0003D160E94A7168C2F0E943616B6CF80E2E3
:101BC0008C0F883048F4C77081E001C0880FCA9537
:101BD000EAF70E945E16A9CFEBE5EC0FE33040F484
:101BE000F0E0E958FE4F808190E0CF910C94410CD9
:101BF000C85AC73158F4EC2FF0E0EE0FFF1FE75B37
:101C0000FE4F80819181CF910C94570CCF91089514
:101C1000882309F44BC0823871F40E94DA0B81FFEB
:101C200045C089E30E9436160E94A71689E30E94E8
:101C30003D160C94A716833859F40E94DA0B80FFE6
:101C400035C083E50E9436160E94A71683E5EFCFC4
:101C5000843859F40E94DA0B82FF28C087E40E947E
:101C600036160E94A71687E4E2CF9CEF980F913AB0
:101C7000F0F290E2980F983050F4877091E001C034
:101C8000990F8A95EAF7892F0E946416D2CF9BE5B7
:101C9000980F933020F490E080E00C94410C885A27
:101CA000873120F490E080E00C94570C0895CF9396
:101CB000C82F0E94790DC93349F42FEF87EE93E0C6
:101CC000215080409040E1F700C000008C2FCF9160
:101CD0000C94080E882321F00E945E160C94A7161F
:101CE0000895882321F00E9464160C94A716089585
:101CF000BF92CF92DF92EF92FF920F931F93CF93F9
:101D0000DF936C01D62FC72FFC01058102950F7060
:101D1000128111110E947B160E945416E82E88230E
:101D200091F01123D1F08C2F807F803421F080E25C
:101D30008D0F883090F082E00E94F2160E945416B7
:101D400091E0E82EE926BC2EB2949FE0B922EB2D5B
:101D5000F0E0E25DFB4D0C94E423E12CF4CF0C2F7A
:101D60000F70C07F11F00295007F1123A9F00023AE
:101D700059F080E28D0F883010F0D11109C0802F0A
:101D80000E945E160E94A7168D2F0E94790D14C026
:101D9000802F0E946E16F6CF8D2F0E94080E002312
:101DA00059F080E28D0F883010F0D1112CC0802FB7
:101DB0000E9464160E94A7162B2D2850330B243046
:101DC000310520F40E94DA0B0E944206EE2009F44D
:101DD00093C10E94501680FD8FC1F60112820E94AD
:101DE0004A160E94D514C6010E949D100E944A16F0
:101DF000DF91CF911F910F91FF90EF90DF90CF90E7
:101E0000BF900C94F614802F0E947416D3CFFC2F31
:101E1000FF70FF2EC07FC03219F0F29480EFF822DD
:101E2000DD2369F0D13049F1112391F1002351F103
:101E3000F601858180FFA8CF8F70858323C0112391
:101E400081F0011106C00E948E168F290E946A0E31
:101E5000B3CF0130C1F70E948E168F290E949416CD
:101E6000ABCF011106C00E949D168F2D0E94710EEE
:101E7000A3CF013009F4A0CFF6CF112329F006300B
:101E800008F09ACF8F2DE2CF053008F095CFEDCF37
:101E9000002359F3D93349F4FFEF27EE33E0F15033
:101EA00020403040E1F700C000008D2F0E94080E56
:101EB00083CF8C2F86958695837069F0813009F0E9
:101EC0007BCF8D2F9C2F9370111102C090E080E08A
:101ED0000E94570C71CF8D2F9C2F9370111102C04F
:101EE00090E080E00E94410C67CF8C2F837009F056
:101EF00041C0111161CF4D2F429546954770440F57
:101F0000440F0D2F0F7010E030E020E0042E04C0CD
:101F1000000F111F221F331F0A94D2F760E070E0F8
:101F2000CB01D4FF0FC06FE070E080E090E004C010
:101F3000660F771F881F991F4A95D2F76095709595
:101F400080959095C695C695C370602B712B822B9A
:101F5000932BC23049F058F4C13019F00E94871415
:101F60002BCF0E94751428CF0E94991425CF0E9470
:101F7000731422CF8695112311F08C2F8170882342
:101F800009F41ACF4D2F429546954770440F440FE0
:101F90000D2F0F7010E030E020E0042E04C0000F81
:101FA000111F221F331F0A94D2F760E070E0CB01AB
:101FB000D4FF0FC06FE070E080E090E004C0660FD7
:101FC000771F881F991F4A95D2F760957095809565
:101FD0009095C695C695C370602B712B822B932B61
:101FE000C23049F058F4C13019F00E944C15E4CECB
:101FF0000E943A15E1CE0E945E15DECE0E94AF141B
:10200000DBCECF70112329F08C2F0E94D5148D2F99
:102010001DCF8D2F0E94710E8C2F0E94F614CCCEF6
:10202000D23F89F160F4D03FC9F0D13F29F11123AB
:1020300009F442C00111A8CE8C2F8F7121C0D33F6B
:1020400039F1D43FA1F7112369F1CF718C2F0E9490
:10205000D51463E08C2F0E94DD16AECE112341F023
:10206000053008F0A9CE8C2F8F710E941915A4CECF
:10207000063008F0A1CEF7CF8C2F8F71112369F2B3
:102080000E94D51499CE8C2F8F711123C9F3C5CF1F
:10209000112329F08C2F8F710E94C0148DCE0E94C5
:1020A000BB148ACE81E00E94F216023008F484CE7E
:1020B00082E00E94F21680CE002359F0D93309F055
:1020C000F4CE8FEF97EEE3E081509040E040E1F7EF
:1020D000EACE8C2F8F71A1CF4C2F4F706D2FC60180
:1020E0000E944A060E94EB1367CE4C2F4F706D2F53
:1020F000C6010E944D0660CEDF91CF911F910F91D6
:10210000FF90EF90DF90CF90BF9008950F931F93B3
:10211000CF93DF93EC01688179818A810E94121646
:102120008C010E9470150E947214B801CE01DF91DB
:10213000CF911F910F910C94780ECF93DF93EC0108
:102140008B819C81892B29F08881998189238F3FFC
:1021500059F4DF91CF910895CE010E948610CE01EF
:10216000DF91CF910C94C205CE010E94E905811147
:10217000F3CF0E945416882361F38A81882349F3A0
:1021800082E0DF91CF910C94F2160E947B160E94A0
:102190008B160E94A71690E080E00E94410C90E010
:1021A00080E00C94570C0E9444160C94C5100E94B9
:1021B0006B160C94D310E92FE295EF70E250EE30DD
:1021C00070F4F0E0E25CFB4D0C94E423803F19F0E6
:1021D00020F4883E20F481E00895843FE1F380E01C
:1021E0000895883EC0F3813FD1F7F5CF93FB882750
:1021F00080F908950E9408160C94DB10CF93DF93AA
:1022000000D000D00F92CDB7DEB70F900F900F9097
:102210000F900F90DF91CF910895CF93DF9300D06F
:1022200000D000D0CDB7DEB726960FB6F894DEBF4B
:102230000FBECDBFDF91CF9108951F93CF93DF9352
:10224000C0919E0116E080919F018C1304C0DF9124
:10225000CF911F910895D0E01C9FF0011D9FF00DBC
:102260001124E056FE4F4081518162817381848147
:1022700095810E940D112196C770E5CF4091D00144
:102280005091D1016091D2017091D3018091D4011C
:102290009091D5010C940D111F93CF93DF938091F2
:1022A000D501807FA9F48091D201882389F08091A3
:1022B0009E01C0919F016091D0017091D101A091C8
:1022C000D301B091D401D62FD72316E0C81304C090
:1022D000DF91CF911F91089590E0109711F0DF3FAB
:1022E00019F401968770F2CF189F9001199F300D55
:1022F0001124F901E056FE4F41814713F2CF40818E
:102300004613EFCF42814111ECCF438154814A1BE8
:102310005B0B4039514028F78091D5018F70806167
:102320008093D501F901EB55FE4F80818F7080615C
:10233000808380ED91E00E949D10DF91CF911F91ED
:102340000C941D11AF92BF92CF92DF92EF92FF9249
:102350000F931F93CF93DF93CDB7DEB761970FB67F
:10236000F894DEBF0FBECDBF8C0185E0F801DE0121
:102370001D9601900D928A95E1F7F80140815181F7
:10238000E28080EDC82E81E0D82E6091D30170915B
:10239000D4016115710509F462C19091D0012091B9
:1023A000D101892F82238F3F09F459C1A380B480C2
:1023B000F090D201F501E61BF70BBF01FF2009F4F5
:1023C000FCC08091D501382F307F6039714008F012
:1023D000B2C0311179C0FE2C251323C0941321C043
:1023E000E1101FC08F7080618093D5010E943E1163
:1023F000C6010E949D108091D501F80185838F2D23
:1024000061960FB6F894DEBF0FBECDBFDF91CF91BE
:102410001F910F91FF90EF90DF90CF90BF90AF9002
:102420000895AB2829F0842F85238F3F09F033C10D
:1024300080E0F82FF170DF2E80FF3CC080919E017C
:1024400020919F0136E0821315C04D875E878D85F0
:102450009E850E940816292F22952F702230F0F0B9
:10246000243018F59F70F1F0F8019581907FD1F438
:10247000D12C1EC090E0389FF001399FF00D11243F
:10248000E056FE4F6181651306C06081641303C08E
:1024900062816E110FC001968770D5CF9F7011F0C9
:1024A000882331F3805E883018F3C8010E949D10A4
:1024B000FD2CA5CFEE2009F4A2CF8091D50181603B
:1024C0008093D501F12C9BCF251306C0941304C033
:1024D000F801EE2009F48DC04D875E878D859E85BD
:1024E0000E94FA10882319F1EE2009F18091D5019C
:1024F000803270F02091D0013091D10138872F8344
:102500001986BB86AA868C87CE0107960E949D10ED
:1025100086E0F801A0EDB1E001900D928A95E1F717
:102520000E944C110E943E11FF24F39468CFC80111
:102530000E949D10F9CF311113C07A2DB98AA88A53
:102540006E2D89890E94FE1080ED91E00E949D1001
:1025500086E0F60111928A95E9F70E943E11B2CF0A
:1025600025130FC094130DC0E1100BC0F801858333
:10257000C8010E949D1086E0F60111928A95E9F744
:102580003ECF4D875E878D859E850E94FA108823F9
:1025900071F2EE2061F28091D501803208F4B8CF5B
:1025A0002091D0013091D1013A8329831B82BD82D1
:1025B000AC828E83CE010196A9CF6039714008F0BC
:1025C00041C0FE2CEE2009F4B2CF25132AC094138B
:1025D00028C08091D50180FD1BC0982F907FC1F04D
:1025E000F8018583903F31F0982F907F905F8F7036
:1025F000892B8583C8010E949D1086E0F801A0ED1B
:10260000B1E001900D928A95E1F70E943E11F7CE5C
:1026100086E0F801A0EDB1E001900D928A95E1F716
:10262000EECE4D875E878D859E850E94FA108111C2
:102630006FCF8091D50181608093D501C8010E9440
:102640009D10DDCE7A2DB98AA88A6E2D89890E94C7
:10265000FE1086E0F60111928A95E9F7D6CFEE20BA
:1026600009F465CF4D875E878D859E850E94FA109F
:10267000F82E882309F45BCF86E0F801A0EDB1E0E5
:1026800001900D928A95E1F780ED91E00E94740D22
:102690000E944C11BACF81E08E25CBCE80E991E02B
:1026A00008951F93CF93DF93CDB7DEB72C970FB666
:1026B000F894DEBF0FBECDBF4F83588769877A87F6
:1026C0008B879C87CE0107960E94A211882369F010
:1026D0008A859B85892B39F04F815885842F8523E6
:1026E0008F3F09F071C016E05FC086E0FE013796AB
:1026F000DE01119601900D928A95E1F78A859B85FE
:10270000892B89F38F81988589238F3F61F32091ED
:102710009F0130E0C90101968770992740919E0181
:102720004817190671F40E94D71010929F01109259
:102730009E0186E0E0EDF1E0DF011D928A95E9F768
:10274000D2CF96E0929FD001939FB00D1124A05656
:10275000BE4FFE01319601900D929A95E1F780935C
:102760009F010E941D11BFCF819FC001112480567F
:102770009E4F0E94A2118823E9F0E0919E011E9FC6
:10278000F0011124E056FE4F408151816281738136
:10279000848195810E940D1180919E0190E00196A7
:1027A0008770992780939E0180919E0190919F014F
:1027B0008913DACF2C960FB6F894DEBF0FBECDBFCB
:1027C000DF91CF911F91089569857A858B859C85CE
:1027D0000E940D1188CFEF92FF920F931F93CF931A
:1027E000DF938C01892B81F0F12CEE24E394E80136
:1027F0002196F8018491843770F4843008F05FC02A
:102800008130B1F08230A1F1DF91CF911F910F9112
:10281000FF90EF900895853709F44CC008F43DC04F
:102820009CE7980F903780F78F770E94080E49C079
:102830000E5F1F4FFE01849190E2980F983060F474
:102840008770FE2D01C0FF0F8A95EAF78F2F0E9437
:102850007E160E94A71602C00E94790D8F2D81500E
:1028600030F2EFE9FFE03197F1F700C00000F7CF59
:102870000E5F1F4FFE01849190E2980F983050F444
:102880008770FE2D01C0FF0F8A95EAF78F2F0E94F7
:102890008416DFCF0E94080EE1CF0E5F1F4FFE01AE
:1028A000C491C150D8F28FE99FE00197F1F700C0C1
:1028B0000000F7CF0E5F1F4FFE01F490CFCF0E94B4
:1028C000790D8E01CBCF08950C9463140E9464148B
:1028D0006093E9017093EA018093EB019093EC011E
:1028E0000C94C51008950C9466140F931F930091D7
:1028F000E9011091EA012091EB013091EC01602B8C
:10290000712B822B932B1F910F910C9466140F93B4
:102910001F930091E9011091EA012091EB013091A0
:10292000EC0160237123822393231F910F910C9458
:1029300066140F931F930091E9011091EA01209111
:10294000EB013091EC0160277127822793271F91BB
:102950000F910C9466140C9463140C94AB140E94A5
:10296000AD146093E5017093E6018093E7019093C5
:10297000E8010C94C51060E070E0CB010C94AF143A
:102980000F931F9341E050E060E070E08A019B01EB
:1029900004C0000F111F221F331F8A95D2F7C901EF
:1029A000B8011F910F910C94AF140F931F9341E046
:1029B00050E060E070E004C0440F551F661F771FB1
:1029C0008A95D2F78091E5019091E601A091E70107
:1029D000B091E8018A019B01082B192B2A2B3B2B74
:1029E000C901B8011F910F910C94AF140F931F935D
:1029F00041E050E060E070E004C0440F551F661FE6
:102A0000771F8A95D2F7CB01BA01609570958095B2
:102A100090950091E5011091E6012091E701309138
:102A2000E80160237123822393231F910F910C945B
:102A3000AF140F931F9341E050E060E070E004C0DA
:102A4000440F551F661F771F8A95D2F78091E501C5
:102A50009091E601A091E701B091E8018A019B0104
:102A6000082719272A273B27C901B8011F910F9171
:102A70000C94AF140F931F930091E5011091E601A0
:102A80002091E7013091E801602B712B822B932B71
:102A90001F910F910C94AF140F931F930091E501B8
:102AA0001091E6012091E7013091E8016023712344
:102AB000822393231F910F910C94AF140F931F93B4
:102AC0000091E5011091E6012091E7013091E801C4
:102AD00060277127822793271F910F910C94AF14C1
:102AE0000895990F990F990F890F982F977041E0CA
:102AF00001C0440F9A95EAF786958695869595E0EC
:102B0000899FF0011124EA52FE4F30E020E070E08E
:102B10005191DF011197CB01022E02C09695879546
:102B20000A94E2F7817081958527842385278C9309
:102B30002F5F3F4F2530310559F70895990F990FB1
:102B4000990F890F982F977086958695869525E021
:102B5000829FF0011124EA52FE4F50E040E080E0F5
:102B6000219130E0092E02C0369527950A94E2F7AC
:102B700021703327042E01C0220F0A94EAF7822B1A
:102B80004F5F5F4F4530510559F70895BF92CF927F
:102B9000DF92EF92FF920F931F93CF93DF938C01FD
:102BA000C090E501D090E601E090E701F090E801E7
:102BB0008091E9019091EA01A091EB01B091EC01C3
:102BC000C82AD92AEA2AFB2ACFE1D0E0BC2ED701B5
:102BD000C6010C2E04C0B695A795979587950A94C3
:102BE000D2F780FD0EC0219788F7B12C8B2DDF9195
:102BF000CF911F910F91FF90EF90DF90CF90BF90FA
:102C00000895B8018C2F0E946B06019761F3EECFF7
:102C1000CF93DF93EC010E94C615BE01DF91CF91E7
:102C20000C946B061F93CF93DF93EB0190919D0162
:102C3000992331F0CB01DF91CF911F910C940816AD
:102C4000882379F0CB010E94C615182F682FCE017A
:102C50000E947115BE01812FDF91CF911F910C94BD
:102C60006B06CB010E949E15182FF4CF682F809120
:102C70000001909101010C948718682F8091000148
:102C8000909101010C9492188091000190910101A2
:102C90000C949D188091ED018595859585950895F5
:102CA0008091ED01877008959091ED01977081E01A
:102CB00009F480E008958091110208959091110225
:102CC000892B809311020895809590911102982389
:102CD000909311020895109211020895909110029C
:102CE000892B80931002089580959091100298236B
:102CF00090931002089510921002089590910F027F
:102D0000892B80930F020895809590910F0298234C
:102D100090930F02089510920F0208958091EE0192
:102D2000089508950C9491169091EE01981721F052
:102D30008093EE010C94921608958091EE01882301
:102D400029F01092EE0180E00C9492160895E09123
:102D50000001F0910101809111028083E091000156
:102D6000F0910101808190911002892B8083E09184
:102D70000001F0910101808190910F02892B8083E5
:102D80009091EE01992381F0E0910001F091010111
:102D90008081892B808380910001909101010E94A4
:102DA000D11781110E949D1680910001909101011F
:102DB0000C94E60B08950C94DA1698E0899F900124
:102DC0001124622B6093ED010E94D5148091ED01D6
:102DD0008595859585950C94DB161092ED0180E024
:102DE0000C94DB169091ED01809589238093ED0181
:102DF000282F277071F4282F082E000C330B921700
:102E0000130639F08595859585950E94F6140C94E6
:102E1000ED16089590938B0180938A010895829511
:102E200090E09C01220F331F220F331F2C7C9595BD
:102E30008795959587958373282B30E0C901880F76
:102E4000991F8A7A359527952575822B08956FEFFE
:102E50007FEF90E080E00C94162490E080E00E94E8
:102E6000F22321E08C3E9E4F09F020E0822F08954E
:102E700082E090E00C94EA2383E090E00C94EA2353
:102E8000CF9384E090E00E94EA23C82F81E290E093
:102E90000E94EA23982F8C2FCF910895CF93C92FAA
:102EA000682F84E090E00E94F8236C2F81E290E08C
:102EB000CF910C94F823AB01BC018FE090E00C940F
:102EC0000A24AB01BC0183E190E00C940A2460E089
:102ED00070E0CB010C94611760E070E0CB010E94C0
:102EE0005B170C9467176CEE7EEF90E080E00E9419
:102EF000162460E082E090E00E94F82360E083E026
:102F000090E00E94F8231092E9011092EA011092D9
:102F1000EB011092EC0160E084E090E00E94F82365
:102F200060E081E290E00E94F82360E085E090E0BC
:102F30000E94F82360E086E090E00E94F8236FEFA3
:102F400087E090E00E94F82340E050E0BA0188E07A
:102F500090E00E940A2460E08DE090E00E94F82357
:102F600040E050E0BA0188E190E00E940A2460E06D
:102F700087E190E00E94F82340E050E0BA018CE144
:102F800090E00E940A2460E080E290E00E94F82332
:102F90000C946C170C947317682F8EE090E00C94CF
:102FA000F823FC01329680910C01882321F0809156
:102FB00044029EE187FF96E080E0915008F4089576
:102FC00021912223D1F38F5FF8CF662301F1209165
:102FD0000C012223F1F02091440227FF1AC0462F52
:102FE0004695469546954E3190F4677021E030E065
:102FF00002C0220F331F6A95E2F7840F911DFC0176
:10300000828190E02823392381E0232B69F480E03A
:103010000895FC01329608962191261721F0E817B1
:10302000F907D1F7F4CF81E008959C01FC013296B5
:103030009FEF80E04191461751F09F3F19F44111F5
:1030400001C0982F8F5F8630A9F79F3F09F408953C
:10305000290F311D97FD3A95F90162830895FC010E
:10306000329608962191261303C0DF0111971C9216
:10307000E817F907B9F70895E62FE695E695E6957E
:10308000EE3170F4E80FF92FF11D677021E030E0A8
:1030900001C0220F6A95EAF78281822B828308950C
:1030A0008091120280FF0CC01F926F938FEF91E00E
:1030B0009F938F930E9474050F900F900F900F9025
:1030C0000895E62FE695E695E695EE3178F4E80F5B
:1030D000F92FF11D677021E030E001C0220F6A95E1
:1030E000EAF7209582812823228308958091120295
:1030F00080FF0CC01F926F9381EE91E09F938F939E
:103100000E9474050F900F900F900F9008952091DA
:103110000C01222329F02091440227FD0C943C1835
:103120000C94151820910C01222329F020914402BF
:1031300027FD0C9461180C942F18FC013296809195
:103140000C01882351F08091440287FF06C08EE174
:10315000DF011D928A95E9F7089586E0F9CF089579
:1031600008950C94B0180E94B11880914A028430DE
:1031700049F11092130288E190E020E40FB6F89430
:10318000A895809360000FBE2093600080E00E94AD
:1031900042060E94B11883B7817F846083BF83B7E2
:1031A000816083BF7894889583B78E7F83BF0FB685
:1031B000F894A895809160008861809360001092D7
:1031C00060000FBE08950895CF930E94AF180E942B
:1031D000F4080E94E318C0E08C2F0E945708811168
:1031E00005C0CF5FC330C1F7CF91089581E0FCCF18
:1031F00008950C94F8180E94D7100E94DA0B0E94D0
:1032000042060C94F9181F921FB61F9211248F9337
:103210009F93AF93BF9380911302811113C080914C
:10322000400290914102A0914202B0914302419626
:10323000A11DB11D8093400290934102A0934202D0
:10324000B0934302BF91AF919F918F911F901FBE8A
:103250001F90189582E084BD93E095BD9AEF97BDCD
:1032600080936E0008952FB7F8948091400290915A
:103270004102A0914202B09143022FBF08952FB79F
:10328000F8946091400270914102809142029091C5
:1032900043022FBF08959C014FB7F89480914002DC
:1032A00090914102A0914202B09143024FBF821B14
:1032B000930B089578941F921FB61F9211248F9339
:1032C0009F93AF93BF938091400290914102A09150
:1032D0004202B09143020196A11DB11D80934002AC
:1032E00090934102A0934202B0934302BF91AF91E9
:1032F0009F918F911F901FBE1F90189587E797E7AA
:10330000909301088093000888E19AE00FB6F89442
:10331000A895809360000FBE90936000FFCF0C943F
:1033200027170E94F4088FE39CE90197F1F700C08A
:1033300000000E94F40880E00E94570880FF04C04B
:103340000E948F190C947E1908950E942D178111E7
:1033500002C00E94CA170E943817809312020E946E
:10336000401790934502809344020E943C17682FB7
:1033700070E090E080E00E9473146091E50170912C
:10338000E6018091E7019091E8010C94AD14CF9390
:10339000C82F1F928F9383E292E09F938F930E9496
:1033A000740561E070E080E090E004C0660F771F74
:1033B000881F991FCA95D2F70E9473140F900F901F
:1033C0000F900F90CF910C94D710CF93DF93EBEF2A
:1033D000E80FEF3308F040C2F0E0E45BFB4D0C94E3
:1033E000E42380E797E00E94DB048CEA96E00E94E9
:1033F000DB040E943C171F928F9389EA96E09F930B
:103400008F930E94740587EA96E00E94DB040E9475
:103410003817C82F84E996E00E94DB041F92CF93EF
:103420008FE896E09F938F930E9474058DE896E055
:103430000E94DB0483E896E00E94DB048C2F8170FD
:103440001F928F9380E896E09F938F930E9474055C
:103450008EE796E00E94DB0484E796E00E94DB049E
:10346000C1FB882780F91F928F9381E796E09F9395
:103470008F930E9474058FE696E00E94DB0483E63A
:1034800096E00E94DB04C2FB882780F91F928F938D
:1034900080E696E09F938F930E9474058EE596E0F8
:1034A0000E94DB0485E596E00E94DB04C3FBCC2789
:1034B000C0F91F92CF9382E596E09F938F930E946D
:1034C000740580E596E00E94DB040E944017EC0141
:1034D0008CE396E00E94DB04DF93CF9387E396E0D2
:1034E0009F938F930E94740585E396E00E94DB040E
:1034F0008CE196E00E94DB048C2F81701F928F93E9
:1035000089E196E09F938F930E9474058DB79EB7D3
:1035100080960FB6F8949EBF0FBE8DBF87E196E0F0
:103520000E94DB0480E096E00E94DB04C1FB882758
:1035300080F91F928F938DEF95E09F938F930E9458
:1035400074058BEF95E00E94DB0489EE95E00E9404
:10355000DB048D2F81701F928F9386EE95E09F93F1
:103560008F930E94740584EE95E00E94DB0482ED47
:1035700095E00E94DB04D695D1701F92DF938FEC0B
:1035800095E09F938F930E9474058DEC95E00E94C7
:10359000DB048BEB95E00E94DB04C2FB882780F9FB
:1035A0001F928F9388EB95E09F938F930E947405F1
:1035B00086EB95E00E94DB0484EA95E00E94DB0440
:1035C000C3FB882780F91F928F9381EA95E09F9330
:1035D0008F930E9474058FE995E00E94DB0485E9D2
:1035E00095E00E94DB04C4FB882780F91F928F932B
:1035F00082E995E09F938F930E94740580E995E09E
:103600000E94DB048EE795E00E94DB04C5FB88275F
:1036100080F91F928F938BE795E09F938F930E9481
:10362000740589E795E00E94DB048DE595E00E9432
:10363000DB04C6FB882780F91F928F938AE595E00B
:103640009F938F930E9474058DB79EB780960FB697
:10365000F8949EBF0FBE8DBF88E595E00E94DB0405
:1036600080E595E00E94DB04C7FBCC27C0F91F92E0
:10367000CF938DE495E09F938F930E9474058BE424
:1036800095E00E94DB040F900F900F900F9081E067
:103690001CC08FE597E00E94DB040E94CA17F7CF99
:1036A00089E993E00E94DB04F2CF80911202807FCF
:1036B000809312028EE793E00E94DB048BE597E093
:1036C0000E94DB0481E080931402DF91CF91089582
:1036D0008FE397E00E94DB040E94DA05D8CF909137
:1036E0001202892F8E7F90FF81608093120280FFEB
:1036F00003C083E397E0D6CF86E297E00E94DB0425
:1037000080911202817F80931202C1CF90911202A8
:10371000892F8D7F91FF82608093120281FF08C004
:1037200089E197E00E94DB04809112028160EBCF77
:103730008BE097E0B7CF90911202892F8B7F92FF99
:1037400084608093120282FF03C08CEF96E0EACF80
:103750008CEE96E0A7CF90911202892F877F93FF7E
:1037600088608093120283FF03C080EE96E0DACF78
:1037700083ED96E097CF8FE693E00E94DB0489E328
:1037800093E00E94DB0486E093E00E94DB0484ED7A
:1037900092E00E94DB0489EA92E084CF8BE992E018
:1037A0000E94DB040E94DA0B1F928F9381E892E063
:1037B0009F938F930E94740580910C011F928F93A9
:1037C0008AE692E09F938F930E947405809139025C
:1037D0001F928F9387E592E09F938F930E947405C9
:1037E0008091440287FB882780F91F928F938FE393
:1037F00092E09F938F930E9474050E943F199F93BC
:103800008F937F936F9388E292E09F938F930E94B0
:1038100074058DB79EB746960FB6F8949EBF0FBE3F
:103820008DBF35CF0E94D71090914402892F97FB0E
:1038300087F980588093440287FF03C089EC96E0A3
:1038400031CF8EEB96E02ECF80E00E94C7191FCFBC
:103850008953FBCF8D51F9CF8CEB96E00E94DB04AE
:1038600080E033CF80E008950C94321CCF93C82FB2
:1038700080911402882331F0813099F01092140263
:1038800080E00DC00E945B168232D1F78C2F0E941F
:10389000321C811119C08C2F0E94E5198170CF91C3
:1038A00008950E945B16823289F38C2F0E94341C8B
:1038B000811119C0C431C9F050F4CB3061F08DE1F1
:1038C00092E00E94DB0413C081E090E0E7CFC932B0
:1038D00061F0C833A1F78EE793E00E94DB048FE12B
:1038E00092E00E94DB0481E0D9CF1092140280E0C4
:1038F000D5CF80913802089508959FB7F89410921B
:1039000017029FBF90914A02943009F048C020915D
:10391000E9002F703091EC00932F917030FD90E80A
:10392000922B23E02093E9002091EB0020FF34C08C
:103930002091EE0027FF30C020911502222321F0B4
:103940002091E80025FF28C01092150226E0309152
:10395000E80035FF14C08093F1008091E80085FDF8
:1039600027C08091E80080FFFCCF8091E8008E772F
:103970008093E8009F709093E90080E00895309173
:103980004A02343049F43091EB0035FD05C0215036
:1039900041F481E0809315029F709093E9008FEFCE
:1039A0000895EFE9FFE03197F1F700C00000CFCFB5
:1039B0008FB7F89421E0209317028FBFDBCFCF930E
:1039C000DF9300D00F92CDB7DEB790914A029430CA
:1039D00019F589837B836A8382E08093E9008FEF06
:1039E0009091E800815095FD06C095ED9A95F1F70C
:1039F00000008111F5CF8091E80085FF0DC050E0F7
:103A000040E063E070E0CE0101960E94481F809183
:103A1000E8008E778093E8000F900F900F90DF9171
:103A2000CF910895BC0184E00C94DF1CBC0183E0BD
:103A30000C94DF1CCF93DF93EC0180910C01882361
:103A4000B1F18091440287FF32C060E282E080934E
:103A5000E9008FEF9091E800815095FD06C095ED4B
:103A60009A95F1F700008111F5CF8091E80085FF6C
:103A70001BC080910C0170E050E040E0811104C057
:103A800050E040E068E070E0CE010E94481F809165
:103A9000E8008E778093E80080E2FE01A8E1B2E0C2
:103AA00001900D928A95E1F7DF91CF91089568E03A
:103AB00081E0CDCF80EA97E00E94DB04809149024B
:103AC000811109C00E94D8200E9435218091E20016
:103AD00084608093E20008958CE997E00E94DB0403
:103AE00010924902089588E997E00C94DB0484E978
:103AF00097E00C94DB0480E997E00E94DB040C94CF
:103B0000FB18209116022F5F822F62E30E94D823B8
:103B1000992319F0209316020895109216028091AD
:103B200017028823F1F080914A028430C1F4909109
:103B3000E9009F702091EC00822F817020FD80E8C9
:103B4000892B93E09093E9009091EB0090FF04C0E3
:103B50009091EE0097FD08C08F708093E90010925D
:103B6000170208951092F1009091E80095FDFACFA8
:103B70009091E80090FFF0CF9091E8009E779093AD
:103B8000E800EACF42E061EC81E00E94542042E28A
:103B900061EC82E00E94542042E261EC83E00C94EC
:103BA000542080914C02833009F45FC030F481309E
:103BB000C1F1823009F49BC008958A3009F487C0AE
:103BC0008B3009F46DC0893009F04EC080914B02F2
:103BD000813209F049C080914F02909150020297C2
:103BE00008F042C08091E800877F8093E8008091D0
:103BF000E80082FF35C09091F3008091F2000297B7
:103C000029F48091F1008B7F813021F48091F100C3
:103C1000809338028091E8008B778093E8000C94C1
:103C2000882080914B02813AF9F48091E800877FE7
:103C30008093E80080914F0290915002892B61F4AB
:103C400060E288E192E070E00E94971F8091E800B6
:103C50008B778093E800089560E090E080E0F3CFF8
:103C600080914A028111C3CF089580914B02813A1D
:103C7000D9F780914F0290915002892BA9F780913A
:103C8000E800877F8093E8008091E80080FFFCCF08
:103C900080910C018093F1008091E8008E77BDCF78
:103CA00080914B02813201F780914F029091500236
:103CB000892BD1F68091E800877F8093E8000E94ED
:103CC000882080914D0280930C010C94D710809134
:103CD0004B02813249F68091E800877F8093E800AB
:103CE0000E94882080914E0280933902089580912D
:103CF0004B02813A09F0B8CF8091E800877F80932A
:103D0000E8008091E80080FFFCCF80913902C2CFAB
:103D100084B7877F84BF0FB6F894A8958091600020
:103D2000886180936000109260000FBE80E890E090
:103D30000FB6F89480936100909361000FBE0E94CB
:103D40007B0C0E94D8200E9435218091E200846083
:103D50008093E2008DE79CE10E940A1778940E940C
:103D6000BD230E94850C82E091E00E94D50B8FE775
:103D700097E00E94DB0480914A02853019F00E948E
:103D8000B50CF9CF8BE797E00E94DB040E94B318D3
:103D900080914802882379F30E94E418882359F31C
:103DA0000E94321FE8CF0C94D51E292F33272330D1
:103DB000310521F168F42130310509F449C0223080
:103DC000310509F44AC090E080E030E020E029C0ED
:103DD0002132310581F122323105A9F763307105B5
:103DE00090F7FB01EE0FFF1FE358FE4F208131815A
:103DF00066587E4FFB01808190E013C09927813087
:103E0000910599F0009741F08230910589F0039770
:103E1000D1F6E4EAF7E002C0ECECF7E0849190E040
:103E20009F01FA01318320830895EAEBF7E0F6CF92
:103E3000EAEAF7E0F3CF6330710528F6660F771FE3
:103E4000FB01ED57FE4F2081318189E090E0E9CF01
:103E500082E190E02BE238E0E4CF8BE590E020EDCA
:103E600037E0DFCF80E189BD82E189BD09B400FE82
:103E7000FDCF8091D8008F7D8093D8008091E000A5
:103E800082608093E0008091E00081FDFCCF089586
:103E9000AF92BF92CF92DF92FF920F931F93CF9377
:103EA000DF936C01EB018A010E94A720F82E81119B
:103EB00023C00115110539F0F80180819181C81BDB
:103EC000D90BC80ED91EB12CA12C2097A9F0809136
:103ED000E80085FD22C08091E8008E778093E8009D
:103EE00001151105A1F0F80180819181A80EB91E7C
:103EF000B182A08285E0F82E8F2DDF91CF911F91A6
:103F00000F91FF90DF90CF90BF90AF9008950E94E7
:103F1000A7208823D1F2F82EEFCFF60181916F010F
:103F20008093F1002197FFEFAF1ABF0ACECFFC01BB
:103F3000809151029091520286179707A0F0611567
:103F4000710529F49091E8009E779093E80090E045
:103F50006115710551F4911108C08091E80082FF4C
:103F600034C080E00895BC01F2CF80914A028823DA
:103F7000C1F18530C1F18091E80083FD30C08091AE
:103F8000E80082FDEACF8091E80080FFE1CF8091D8
:103F9000F3002091F200382F6115710519F02830D7
:103FA000310558F091E02830310509F090E020917A
:103FB000E8002E772093E800CBCF81918093F10029
:103FC000615071092F5F3F4FE7CF80914A028823EC
:103FD00041F0853041F08091E80083FFBECF81E061
:103FE000089582E0089583E00895FC0180915102D4
:103FF0009091520286179707A0F06115710529F478
:104000008091E8008E778093E80090E0611571055B
:1040100051F4911108C08091E80082FF35C080E022
:104020000895BC01F2CF80914A028823C9F18530FE
:10403000C9F18091E80083FD31C08091E80082FDE4
:10404000EACF8091E80080FFE1CF8091F3002091DA
:10405000F200382F6115710519F02830310558F03C
:1040600091E02830310509F090E08091E8008E77EA
:104070008093E800CBCF84918093F100319661501A
:1040800071092F5F3F4FE6CF80914A02882341F0AC
:10409000853041F08091E80083FFBDCF81E0089535
:1040A00082E0089583E00895982F973028F08F706C
:1040B0008093E90081E008959093E900242F762F02
:1040C00050E0981731F07091EC002091ED00509184
:1040D000F00021FD02C09F5FE8CF3091EB003E7FF2
:1040E0003093EB003091ED003D7F3093ED00309147
:1040F000EB0031603093EB007093EC002093ED0007
:104100005093F0002091EE0027FDE5CF80E0089568
:1041100080914B0287FF13C08091E80082FF06C0A8
:104120008091E8008B778093E80004C080914A0278
:104130008111F2CF089580914A028823D9F38091AA
:10414000E80080FFF8CF8091E8008E77ECCF2091D7
:10415000E4003091E50095E6A9012091EC00822F62
:10416000817020FF06C08091E80080FF06C080E0DB
:1041700008952091E80022FD1AC080914A02882308
:1041800089F0853089F08091EB0085FD0FC020918A
:10419000E4003091E50042175307F9F29150E1F63F
:1041A00084E0089582E0089583E0089581E0089511
:1041B0000E9446210E944E21E0EEF0E08081816065
:1041C0008083E8EDF0E080818F77808319BCA7EDD4
:1041D000B0E08C918E7F8C9380818F7E8083109253
:1041E000490208950F931F93CF93DF930E944621B6
:1041F0000E944E21C8EDD0E088818F778883888126
:104200008068888388818F7D888319BC10924A02D8
:1042100010924602109248021092470200EE10E0FF
:10422000F80180818B7F808388818160888342E070
:1042300060E080E00E945420E1EEF0E080818E7F1B
:104240008083E2EEF0E080818160808380818860FD
:104250008083F80180818E7F80838881806188835C
:10426000DF91CF911F910F910895E8EDF0E08081EB
:104270008F7E8083E7EDF0E080818160808384E041
:1042800082BF81E0809349020C94F220E8EDF0E0D7
:1042900080818E7F80831092E20008951092DA0070
:1042A0001092E10008951F920F920FB60F92112401
:1042B0002F933F934F935F936F937F938F939F932E
:1042C000AF93BF93EF93FF938091E10082FF0BC008
:1042D0008091E20082FF07C08091E1008B7F809394
:1042E000E1000E94811D8091DA0080FF19C0809159
:1042F000D80080FF15C08091DA008E7F8093DA00AD
:104300008091D90080FF96C080E189BD82E189BD9E
:1043100009B400FEFDCF81E080934A020E945A1D3D
:104320008091E10080FF19C08091E20080FF15C0FC
:104330008091E2008E7F8093E2008091E2008061B4
:104340008093E2008091D80080628093D80019BCED
:1043500085E080934A020E94771D8091E10084FFEE
:104360002BC08091E20084FF27C080E189BD82E1FB
:1043700089BD89B5982F917080FFFBCF8091D800BF
:104380008F7D8093D8008091E1008F7E8093E10043
:104390008091E2008F7E8093E2008091E200816054
:1043A0008093E20080914602882309F449C084E0AA
:1043B00080934A020E947B1D8091E10083FF29C007
:1043C0008091E20083FF25C08091E100877F809388
:1043D000E10082E080934A02109246028091E1005F
:1043E0008E7F8093E1008091E2008E7F8093E200D7
:1043F0008091E20080618093E20042E060E080E032
:104400000E9454208091F00088608093F0000E9408
:10441000731DFF91EF91BF91AF919F918F917F910C
:104420006F915F914F913F912F910F900FBE0F9021
:104430001F90189519BC10924A020E946C1D70CFF3
:104440008091E30087FD93E090934A02B3CF1F92DF
:104450000F920FB60F9211242F933F934F935F93B8
:104460006F937F938F939F93AF93BF93CF93DF937C
:10447000EF93FF93D091E900DF708091EC00C82F9B
:10448000C17080FDC0E81092E9008091F000877F44
:104490008093F00078940E946B221092E900809142
:1044A000F00088608093F000CD2BCF70C093E900BE
:1044B000FF91EF91DF91CF91BF91AF919F918F913C
:1044C0007F916F915F914F913F912F910F900FBE10
:1044D0000F901F9018951F93CF93DF93CDB7DEB742
:1044E000AA970FB6F894DEBF0FBECDBF8BE492E063
:1044F0002091F100FC012193CF01F2E083359F0769
:10450000B9F70E94D11D8091E80083FF1EC1809100
:104510004B0290914C029A3008F017C1E92FF0E05D
:10452000E557FB4D0C94E423803899F0823809F06C
:104530000CC180914F028F70873008F006C18093C4
:10454000E9008091EB0085FB882780F91092E90053
:1045500006C080914702909148029111826090912B
:10456000E800977F9093E8008093F1001092F100AB
:104570008091E8008E77E5C0882309F4D3C08230AB
:1045800009F0E3C080914D028111D6C080914F02A5
:104590008F702FEF280F263008F0D7C08093E900E6
:1045A0002091EB0020FFC8C0933031F48091EB00E4
:1045B00080628093EB00C0C09091EB00906190937B
:1045C000EB0021E030E001C0220F8A95EAF720934A
:1045D000EA001092EA008091EB008860EACF811136
:1045E000B4C010914D021F778091E3008078812B39
:1045F0008093E3008091E800877F8093E8000E9429
:1046000088208091E80080FFFCCF8091E3008068E3
:104610008093E30082E0111183E080934A0295C009
:104620008058823008F091C080914D0290914E02E6
:104630008C3D23E09207A1F583E08A838AE2898397
:104640004FB7F894DE01139620E03EE051E2E32FED
:10465000F0E050935700E49120FF03C0E295EF7023
:104660003F5FEF708E2F90E0EA30C0F0C7968D93D9
:104670009D932F5F243159F74FBF8091E800877FCA
:104680008093E8006AE270E0CE0101960E94971FD5
:104690008091E8008B778093E80057C0C096E7CF01
:1046A00060914F0270915002AE014F5F5F4F0E94C8
:1046B000D31EBC01892B09F448C09091E800977F74
:1046C0009093E80089819A810E94F51FE1CF80389C
:1046D000E1F58091E800877F8093E80080914602B1
:1046E0008093F10045CF811130C090914D029230FE
:1046F00060F58091E800877F8093E8009093460200
:104700000E94882080914602882311F084E005C031
:104710008091E30087FDFACF81E080934A020E94F6
:10472000C21D13C080914D02813079F481E0933035
:1047300009F080E0809348021092E9008091E8003F
:10474000877F8093E8000E9488208091E80083FFA3
:104750000AC08091E800877F8093E8008091EB0099
:1047600080628093EB00AA960FB6F894DEBF0FBE6E
:10477000CDBFDF91CF911F910895CF9380914A02D1
:104780008823A1F0C091E900CF709091EC00892FAF
:10479000817090FD80E8C82B1092E9008091E800BC
:1047A00083FD0E946B22CF70C093E900CF910895E2
:1047B000991B79E004C0991F961708F0961B881F73
:1047C0007A95C9F780950895EE0FFF1F0590F49133
:1047D000E02D0994F999FECF92BD81BDF89A9927F1
:1047E00080B50895A8E1B0E042E050E00C941E24AA
:1047F000262FF999FECF92BD81BDF89A019700B49A
:10480000021639F01FBA20BD0FB6F894FA9AF99A39
:104810000FBE08950396272F0E94F9230E94F823C4
:10482000252F0E94F923242F0C94F9230196272F7A
:104830000E94F9230C94F823DC01CB01FC01F999C7
:10484000FECF06C0F2BDE1BDF89A319600B40D92DC
:1048500041505040B8F70895F894FFCFAF0EAF0E17
:10486000070F070F590FDC0EDC0EDC0E750F011061
:10487000101010106C10DC0EDC0E7510E610E61037
:10488000EF10EF10F110EF10EF10EF10E610E61040
:10489000F610EF10EF10F610681B551B6F1BF11987
:1048A0002C1C2C1C501B2C1C2C1C9B1B2C1CAB1BB9
:1048B000121C2C1C2C1C2C1C2C1CCE1B2C1C2C1C31
:1048C000BB1B2C1C861B2C1C2C1C2A1C2A1C2A1CC7
:1048D0002A1C2A1C2A1C2A1C2A1C2A1C241C2C1CAC
:1048E000681B491B2C1C2C1C2C1C2C1C2C1C2C1C31
:1048F0002C1C2C1C2C1C2C1C241C2C1C2C1C501B5D
:104900002C1C281C281C281C281C281C281C281C83
:10491000281C281C241C9422BC22A523BC22A523CD
:0A492000EF221023A5236723732361
:10492A00EF01791C1A1D7C1C161D121D01E200E9FB
:10493A0000EA00B500B600B700CD008301CC008ABA
:10494A000192019401210223022402250226022750
:10495A00022A02B300B4006F007000818283F4F56A
:10496A00F63534C66697F73331E200E900EA00B556
:10497A0000B600B700CD008301CC008A01920194F1
:10498A00012102230224022502260227022A02B357
:10499A0000B4006F007000818283406D22CC085FF2
:0A49AA00083D08E207FB07140800AF
:00000001FF
