:100000000C94F7040C943E050C943E050C943E05AC
:100010000C943E050C943E050C943E050C943E0554
:100020000C943E050C943E050C947A260C944E27B5
:100030000C94661D0C943E050C943E050C943E05F4
:100040000C943E050C943E050C943E050C943E0524
:100050000C943E050C94BD1D0C943E050C943E057D
:100060000C943E050C943E050C943E050C943E0504
:100070000C943E050C943E050C943E050C943E05F4
:100080000C943E050C943E050C943E050C943E05E4
:100090000C943E050C943E050C943E050C943E05D4
:1000A0000C943E050C943E050C943E05060006009B
:1000B00018000000180010000000100006000000EA
:1000C00018000000180010001000100006000600C4
:1000D00018001800180010000000100001000100B6
:1000E000010000000100010000000100010000000B
:1000F00001000000010001000100010001000100F9
:1001000001000100010001000000010001000100E8
:1001100001000000010001000000010001000000DA
:1001200001000000010001000100010001000100C8
:1001300001000100010001000000010001000100B8
:1001400001000000010001000000010001000000AA
:100150000100000001000100010001000100010098
:10016000010001000100010000000100444542556A
:10017000473A2064697361626C65642E0A004445E5
:100180004255473A20656E61626C65642E0A000034
:10019000000000000000002A2B28000000000000E2
:1001A0000000000000000000000029000000002CFA
:1001B0001E3420212224342627252E362D37382799
:1001C0001E1F202122232425263333362E37381FA5
:1001D0000405060708090A0B0C0D0E0F1011121367
:1001E0001415161718191A1B1C1D2F3130232D3505
:1001F0000405060708090A0B0C0D0E0F1011121347
:100200001415161718191A1B1C1D2F3130354C00E8
:1002100000000000000000000000000000000000DE
:100220000000007E0F00D4FFFFFFC7000000780A27
:100230000025303862003A200025303258000A721A
:100240002F632030313233343536370A000A002527
:1002500030325820006B6579626F6172645F72653D
:10026000706F72743A20000A0025303258006B65B6
:1002700079626F6172645F7365745F6C65643A2064
:100280000064656C5F6B65795F6269743A206361D5
:100290006E27742064656C3A20253032580A00615C
:1002A00064645F6B65795F6269743A2063616E278D
:1002B00074206164643A20253032580A003F0043BC
:1002C0003E20004C25640A0074696D65725F72659A
:1002D0006164333228293A202530346C580A006B87
:1002E00065796D61705F636F6E6669672E6E6B72A4
:1002F0006F3A2025580A006B6579626F6172645FFE
:1003000069646C653A2025580A006B6579626F61F3
:1003100072645F70726F746F636F6C3A2025580A55
:1003200000686F73745F6B6579626F6172645F6C94
:1003300065647328293A2025580A000A092D20539C
:100340007461747573202D0A004743433A20382E98
:10035000342E30204156522D4C4942433A20322E01
:10036000302E30204156525F415243483A20617648
:1003700072350A004F5054494F4E533A204C55465F
:10038000412045585452414B455920434F4E534FFD
:100390004C4520434F4D4D414E44204E4B524F2033
:1003A000343039360A004255494C443A2022302E26
:1003B00031302E35312D322D67306465653333226F
:1003C000202832323A34313A3335204665622020D3
:1003D000382032303231290A005649443A203078E8
:1003E00034433437284C6667626572672920504968
:1003F000443A203078303030312843756D70616474
:1004000029205645523A203078303030310A000ADF
:10041000092D2056657273696F6E202D0A000A0936
:100420002D20436F6E736F6C65202D0A4553432F4B
:10043000713A09717569740A000A092D204D6167C6
:100440006963202D0A443A094465627567204D6549
:10045000737361676520546F67676C650A583A0962
:100460004D6174726978204465627567204D6F64D0
:100470006520546F67676C65202D2053686F772067
:100480006B65797072657373657320696E206D6139
:100490007472697820677269640A4B3A094B65790E
:1004A000626F61726420446562756720546F67678C
:1004B0006C65202D2053686F77206B6579707265AD
:1004C0007373207265706F72740A4D3A09446562E5
:1004D0007567204D6F75736520546F67676C650A8B
:1004E000563A0956657273696F6E0A533A09537426
:1004F000617475730A433A0941637469766174657E
:1005000020436F6E736F6C65204D6F64650A4631D2
:100510002D4631303A0953776974636820746F202F
:100520004C6179657220302D392028463130203DCC
:10053000204C30290A302D393A09537769746368A1
:1005400020746F204C6179657220302D390A475232
:100550004156453A0953776974636820746F204C9B
:100560006179657220302028616C7465726E6174E7
:1005700065290A423A094A756D7020746F20426FEE
:100580006F746C6F616465720A4553433A094A752A
:100590006D7020746F20426F6F746C6F6164657250
:1005A0002028616C7465726E617465290A453A0988
:1005B0005072696E7420454550524F4D20536574FA
:1005C00074696E67730A4253504143453A09436C5C
:1005D00065617220454550524F4D0A4E3A094E4BC7
:1005E000524F20546F67676C650A000A002575003A
:1005F0002E6E6B726F3A20000A002575002E7377FD
:1006000061705F6261636B736C6173685F62616389
:100610006B73706163653A20000A002575002E73C4
:100620007761705F67726176655F6573633A20001A
:100630000A002575002E6E6F5F6775693A20000A03
:10064000002575002E737761705F72616C745F7244
:100650006775693A20000A002575002E737761706E
:100660005F6C616C745F6C6775693A20000A0025E5
:1006700075002E737761705F7263746C5F7267755B
:10068000693A20000A002575002E737761705F6C4F
:1006900063746C5F6C6775693A20000A0025750009
:1006A0002E636170736C6F636B5F746F5F636F6EEB
:1006B00074726F6C3A20000A002575002E73776102
:1006C000705F636F6E74726F6C5F636170736C6F79
:1006D000636B3A20000A0025303258006B65796D53
:1006E00061705F636F6E6669672E7261773A200092
:1006F0000A002575002E6D6F7573653A20000A009B
:100700002575002E6B6579626F6172643A20000A6C
:10071000002575002E6D61747269783A20000A0018
:100720002575002E656E61626C653A20000A002511
:100730003032580064656275675F636F6E66696723
:100740002E7261773A20000A0025750064656661A3
:10075000756C745F6C617965723A20003F004E4B96
:10076000524F3A206F66660A004E4B524F3A206F46
:100770006E0A000A6D6F7573653A206F66660A002F
:100780000A6D6F7573653A206F6E0A000A6B6579A2
:10079000626F6172643A206F66660A000A6B65795F
:1007A000626F6172643A206F6E0A000A6D61747242
:1007B00069783A206F66660A000A6D61747269781A
:1007C0003A206F6E0A000A64656275673A206F66A8
:1007D000660A000A64656275673A206F6E0A000A4D
:1007E0000A4A756D70696E6720746F20626F6F744E
:1007F0006C6F616465722E2E2E2000433E200043F4
:100800006C656172696E6720454550524F4D0A0014
:100810006565636F6E6669673A0A005B735D004BDE
:100820006579626F6172642073746172742E0A005C
:100830005B575D005B535D005B525D005B445D0098
:100840005B435D000403300000000E0343007500AD
:100850006D00700061006400000010034C00660031
:10086000670062006500720067000000040309046D
:1008700009027B00040100A0FA0904000001030141
:100880000100092111010001224000070581030830
:10089000000A0904010002030000000921110100FF
:1008A000012222000705820320000107050303201F
:1008B00000010904020001030000000921110100E8
:1008C00001226D000705840320000A0904030002C9
:1008D0000300000009211101000122220007058503
:1008E000032000010705050320000112011001008B
:1008F000000008474C01000100010203010631FF1E
:100900000974A1010975150026FF0095207508815D
:10091000020976150026FF00952075089102C00691
:1009200060FF0961A1010962150026FF009520758D
:100930000881020963150026FF00952075089102C1
:10094000C005010980A101850319012AB70015011D
:1009500026B700950175108100C0050C0901A101A1
:10096000850419012AA002150126A002950175101F
:100970008100C005010906A1018505050719E029C7
:10098000E715002501950875018102050719002961
:10099000EF1500250195F07501810205081901295F
:1009A00005950575019102950175039101C0050139
:1009B0000906A101050719E029E715002501950899
:1009C000750181029501750881010507190029FF4C
:1009D000150026FF009506750881000508190129F4
:1009E00005950575019102950175039101C01124CA
:1009F0001FBECFEFDAE0DEBFCDBF04B603FE27C0D7
:100A00008091570290915802A0915902B0915A02D8
:100A10008730904BA740B04BD1F410925702109200
:100A200058021092590210925A0214BE84B7877F5E
:100A300084BF0FB6F894A895809160008861809378
:100A40006000109260000FBEE0E0F8E3099511E04D
:100A5000A0E0B1E0ECEAF3E502C005900D92AE38FB
:100A6000B107D9F722E0AEE8B1E001C01D92A73589
:100A7000B207E1F70E9433230C945A290C9400002A
:100A8000FF93EF93E0918E01F0918F01309709F081
:100A90000995EF91FF910895FC018591803011F047
:100AA000EFDFFBCF0895FF27E0E230E247FF0CC005
:100AB000419597FF09C0EDE26095709580959095FE
:100AC000611D711D811D911D27FF02C0219530E31D
:100AD00050E2AA27660F771F881F991FAA1FA41725
:100AE00010F0A41B63955A95A9F7AA3008F0A95FE6
:100AF000A05DAF93F395611571058105910541F7EF
:100B0000ED3211F4EF93F395F21718F43F93F39548
:100B1000FBCF8F91B5DFFA95E1F70895E991F9914F
:100B20008591803021F0853219F0AADFF9CF089540
:100B300020E0E89455915532C1F3503311F4689494
:100B400055915A3348F4505390F3220F022E220F3E
:100B5000220F200D250FF4CF0EF421958991999144
:100B6000533619F3533729F1533559F1BC0188270E
:100B70009927E8945C3621F489919991689455916C
:100B8000543639F446EF7EF077FF0DC08FEF9FEFBC
:100B90000AC055374AE039F0583540E121F0523665
:100BA00042E009F00895FF93EF937DDFEF91FF910D
:100BB000B7CFFF93EF93FC0181918030B9F360DFF1
:100BC000FBCFFF93EF9368DFF1CFDF93CF93CDB7E8
:100BD000DEB72596A3DFCF91DF91089581E00895D8
:100BE00081E008950C94F00508950C94F4051F938A
:100BF000CF93DF9300D000D00F92CDB7DEB74983FB
:100C00005A836B833091A10189819A8131111DC072
:100C10006623B9F02223A9F00E94291A182F682F01
:100C200089819A810E94D41969817A81812F0F90DC
:100C30000F900F900F900F90DF91CF911F910C9418
:100C4000410D0E94011A182FEFCF0E94291A6981C5
:100C50007A81EDCFFC01262F408151816281738121
:100C600084810C94F705CF93DF93EC0160E00E9440
:100C70002A06BE01DF91CF910C94F505FF920F93E8
:100C80001F93CF93DF93E82FF0E0E157FE4FF490EE
:100C9000C82FC695C695C695D0E0FE01E15EFD4F12
:100CA0000491877010E0082E02C0159507950A94EC
:100CB000E2F701701127C15FDD4FFE01C491D0E062
:100CC00002C0D595C7958A95E2F7C170DD27011559
:100CD000110519F081EE0E94DC11209719F086EEC3
:100CE0000E94DC118F2D0E94BA12CD2B19F086EED6
:100CF0000E946B12012B41F081EEDF91CF911F9189
:100D00000F91FF900C946B12DF91CF911F910F9177
:100D1000FF900895EF92FF920F931F93CF93DF936D
:100D2000EC01162F0AE08881882309F454C0813031
:100D300009F04EC08981813099F47E0122E0E20EF3
:100D4000F11C8A810E94BA12E7012196812F8150FD
:100D500050F3EFE9FFE03197F1F700C00000F7CF63
:100D6000823041F47E0182E0E80EF11C8A810E940B
:100D7000DC11EACF833041F47E01E2E0EE0EF11C9B
:100D80008A810E946B12E0CF843011F02196DDCF72
:100D90002A81229690E080E0AE014F5F5F4F2053A2
:100DA000330B2A30310548F0019778F2EFE9FFE084
:100DB0003197F1F700C00000F7CF089FB001099FFD
:100DC000700D1124C901860F971F2981EA01E4CF14
:100DD0000E943E06BACFDF91CF911F910F91FF90F5
:100DE000EF90089560E00C948A068F929F92AF92E4
:100DF000BF92CF92DF92EF92FF920F931F936B01FE
:100E00007C0181E090E0A0E0B0E04C015D0104C015
:100E1000880C991CAA1CBB1C4A95D2F7B501A401E9
:100E20004C015D0104C0880C991CAA1CBB1C2A95AE
:100E3000D2F7482959296A297B2904C0880F991FAC
:100E4000AA1FBB1F0A95D2F78A019B010C211D2105
:100E50002E213F21041715072607370789F48C290F
:100E60009D29AE29BF29BC01CD011F910F91FF9093
:100E7000EF90DF90CF90BF90AF909F908F900895AC
:100E800080959095A095B0958C219D21AE21BF2194
:100E9000EACF0F93382F262F6091E9017091EA0174
:100EA0008091EB019091EC01042F432F0E94F506F5
:100EB0000F910C9412190E94071E0E94901B811121
:100EC00002C00E942D1C0C94D1090C94D4090895E1
:100ED0000E943A150E9467072FEF84E39CE021509F
:100EE00080409040E1F700C000000C94E11D0F939A
:100EF0001F93CF93DF93EC0161E00E942A068C01DF
:100F0000BE010E94810B882341F1BE01C8010E94ED
:100F1000F205882311F1BE01C8010E94970E8823B3
:100F2000E1F0BE01C8010E94E90E8823B1F0BE01C4
:100F3000C8010E940C10882381F08A81882341F126
:100F400001308CE5180779F00E3D8CE51807E9F0C3
:100F500001151C45E9F40E94680780E0DF91CF91FC
:100F60001F910F91089590911602892F8E7F90FF07
:100F700081608093160280FF05C08EE791E00E9499
:100F80004C05EBCF8CE691E0FACF0E942D1CE5CF0B
:100F9000CE01DF91CF911F910F910C94EE05089532
:100FA0000C94CF0781E008950C94D207CF93C82FFB
:100FB0000E94D0078C2FCF910C94D40790E080E052
:100FC00008950895FC01EE0FFF1FE15DFD4F85912F
:100FD00094910895CF93DF930E94410D0E94F608EB
:100FE000EC01811520E5920708F041C0811530E43D
:100FF000930708F0B4C0803E910518F5803C910538
:1010000008F09DC0883A910570F4853A910508F082
:101010008EC081309105F9F00097E9F00497D8F47B
:10102000D0E0C0E018C08F3B9105D0F7C85AD0E09F
:10103000CC0FDD1FC35FDE4F0990D881C02DD46473
:101040000AC08115904258F4C11581E0D80718F400
:10105000C83ED10528F7CE01DF91CF910895C11583
:1010600090E3D90708F071C0CE019F706AC0811566
:1010700025E5920758F5811534E5930708F09EC0E1
:10108000811542E5940750F4C11581E5D80708F4AD
:1010900069C0DC2FCC27C16FD06ADDCF982F969521
:1010A00096959E0123703327C115D34508F077C06C
:1010B000C1E0D0E002C0CC0FDD1F2A95E2F720E2AC
:1010C000929FC0011124C82BD92B67C0C11589E597
:1010D000D807A8F4C11598E5D90708F074C0C11560
:1010E00026E5D20708F09CCF8C2F0E948D09C82FCF
:1010F000D0E0DC2FCC27CC27DF71D062ACCFC1157C
:101100003AE5D30708F464C0CE01905681159042A9
:1011100008F086CF8D2F8F710E948D0990E0982F57
:10112000882788279F719C012C2BE901E6CFC55A9F
:10113000D0E0C55CDE4FC881D0E0D0648CCF805C4D
:1011400091090E94E207EC0186CFCE019927D3FFD7
:1011500003C0EC01D86C7FCFEC01D06C7CCFDF708A
:10116000D06A79CFCE01E4E096958795EA95E1F7CC
:1011700083702C2F26952695237090E2299F90014D
:101180001124382B8C2F8370C1E0D0E002C0CC0F2B
:10119000DD1F8A95E2F7C22BD32BDC685CCFC1E060
:1011A000D0E002C0CC0FDD1F2A95E2F730E2939F1A
:1011B000C0011124C82BD92BDA684DCFD82FCC27EA
:1011C000C46FD06A48CFDC2FCC27C06FD06A43CF22
:1011D0008C2F8F700E948D0934E0D695C7953A9573
:1011E000E1F7CF709C2FEC01D06935CF82389105A3
:1011F000B1F1B0F48133910509F475C048F4893236
:10120000910509F469C08A32910509F473C0089503
:101210008533910509F459C08933910501F1089589
:10122000833E9105A9F138F4803E9105F9F0823EA4
:10123000910549F10895863E9105A9F1873E9105F2
:10124000C9F1843E910519F52091490221FF1FC083
:101250008091480284FD14C087EE90E008952091AB
:1012600048022370A1F080EE90E00895209148029A
:1012700020FD47C03091490230FF09C024FF44C01F
:1012800090E080E004C02091480222FDF7CF08954D
:101290002091480222FD3BC03091490230FDE3CF4E
:1012A00024FFF5CFEDCF2091480223FFF0CF24FD9E
:1012B000E7CFD2CF2091480223FD2CC030914902C4
:1012C00031FFEECF84EE90E008952091480225FF93
:1012D000DECF89E290E008952091480225FFD7CF24
:1012E00085E390E008952091480226FFD0CF8AE25E
:1012F00090E008952091480226FFC9CF81E390E055
:10130000089589E390E0089583EE90E0089582EED9
:1013100090E0089586EE90E008959091480292FF43
:1013200006C0282F28712830F9F4877F846093FF46
:1013300006C0282F28712831F1F4877E846120911E
:10134000490220FF06C0382F38713830D9F4877F22
:10135000816021FF06C0282F28712831D1F4877EB3
:10136000816194FD877E0895282F24712430F9F639
:101370008B7F8860DCCF282F2471243101F78B7E8E
:101380008861DDCF382F3171313019F78E7F886059
:10139000E0CF282F2171213121F78E7E8861E1CFA6
:1013A00008950C94D00908950C94D309E82FF0E027
:1013B000EF5BFD4F80810895CF92DF92EF92FF9215
:1013C0000F931F93CF93DF938EE392E00E944C051F
:1013D00081E4E82E82E0F82ED0E0C0E099E3C92E47
:1013E00092E0D92E01E312E0DF93CF93DF92CF9208
:1013F0000E94E50586E392E00E944C05F701819189
:101400007F010E94721B1F928F931F930F930E9464
:10141000E5058FE292E00E944C0521968DB79EB7BC
:1014200008960FB6F8949EBF0FBE8DBFC330D1058E
:10143000D9F6DF91CF911F910F91FF90EF90DF9040
:10144000CF90089580EA8A95F1F70895CF93DF93BE
:10145000A6E4B1E049E451E0C1E0D0E08D91E82F8D
:10146000E295EF70F0E061A18F709E0101C0220F44
:101470008A95EAF7922F9095962391A382A1822BC9
:1014800082A34A175B0751F7AEE3B1E046E451E0AF
:10149000C1E0D0E08D91E82FE295EF70F0E061A11E
:1014A0008F709E0101C0220F8A95EAF7922F9095C6
:1014B000962391A382A1822B82A34A175B0751F73F
:1014C00010923E021092410210923F02109242028C
:1014D000109240021092430283E00E94F30ADF91CF
:1014E000CF910C945B078F929F92AF92BF92CF9255
:1014F000DF92EF92FF920F931F93CF93DF9386E4D7
:10150000A82E81E0B82E0EE312E0912CCC24C394D7
:10151000D12CF50181915F01C82FC295CF70D0E029
:1015200099A18F70760101C0EE0C8A95EAF7892F98
:101530008E2989A38AA18E2C809488218AA30E9457
:10154000220AEEE3F1E050E040E020E03191A32FE9
:10155000A295AF70B0E090968C9190E03F7002C081
:10156000959587953A95E2F780FD39C08C2D042E2C
:1015700001C0880F0A94EAF7282B4F5F5F4F48306D
:10158000510521F789A1882289A28AA1E82AEAA225
:10159000F8018081281729F1208381E0982A0F5FC4
:1015A0001F4FF9E4AF16F1E0BF0609F0B2CF292DC5
:1015B00043E061E472E08EE392E00E94F40A0E944C
:1015C0006507892DDF91CF911F910F91FF90EF90CB
:1015D000DF90CF90BF90AF909F908F90089580E064
:1015E000CBCF80E0DBCF0895FF920F931F93CF9373
:1015F000DF93F82E092F162FD72FC42F222349F05F
:1016000081E0809392010E94961D909391018093B6
:101610009001809192018823A1F080919001909196
:1016200091010E94AE1D069760F0EF2DF02FA12FC3
:10163000BD2FCE0FDF2FD11DEC17FD0741F4109207
:101640009201DF91CF911F910F91FF9008958191A9
:101650008D93F2CF82E290E00E941829813289F4C2
:1016600083E290E00E941829823059F484E290E0ED
:101670000E94182991E0883009F090E0892F81704C
:10168000089580E0FCCFCF93C82F6FEF811161E206
:1016900082E290E00E9426296FEFC11162E083E2AE
:1016A00090E00E9426296FEFC11168E084E290E08B
:1016B000CF910C94262980E00E94430B0C948A1B46
:1016C000089585E290E00E941829682F70E090E06C
:1016D00080E0089585E290E00C9426290E94600B3A
:1016E0000E942A0B81110CC060E070E0CB010E94C7
:1016F0006A0B0E94BB0C0E94A50D81E00C94430B69
:101700000895CF93FB01C281CC2309F19C012251A2
:101710003F452031310520F582510E94B50DC0E0D2
:101720008C2FCF91089581E00E94381943E062E048
:1017300081E00E944907F3CF81E00E94591943E0FC
:1017400062E081E00E944907EBCF82E0F6CF803172
:10175000FFE59F0789F381319F45B9F3C1E0E0CFF1
:101760008031EFE59E07F9F281319F45C9F682E0AD
:10177000DBCF2FEFFC01208308951F93CF93DF93DE
:10178000EC01162FE881E150E33108F059C0F0E098
:10179000E45AF64D0C940B29198289E08A83612F53
:1017A000CE01DF91CF911F910C94CF21898182309E
:1017B000D1F0833059F08130C9F40E94A21D0E94FB
:1017C00011296A837B838C839D83E9CF80E00E940B
:1017D000D6098A8381E00E94D6098B8382E00E9429
:1017E000D6098C83DCCF0E94610BE9CF612FCE013B
:1017F0000E94B90BD4CF89818230C1F76A817B8185
:101800008C819D810E9411290E946A0BC8CF4B8157
:101810006A8189810E948D0C9827892798279D834A
:101820008C83BDCF2C813D813227232732274B81EA
:101830006A8189810E94A60CB2CF0E94BB0CAFCFF7
:101840008FEF8883ACCF0E944E0D8983A8CF0E9472
:10185000500D9827892798279A838983A0CF6B8179
:1018600070E089819A81AE014C5F5F4F982789278C
:1018700098270E94530D93CF6B8170E089819A81E4
:10188000AE014C5F5F4F9827892798270E947A0DF9
:1018900086CF0E94A50D83CF0E947A0CD6CF6B8194
:1018A00070E089819A81AE014C5F5F4F982789274C
:1018B00098270E94F30C73CF6B8170E089819A8125
:1018C000AE014C5F5F4F9827892798270E94180D1B
:1018D00066CF0E945B0B63CF0E94CF212FEF81EE7A
:1018E00094E0215080409040E1F700C000000E9449
:1018F000E11D55CF84E0089590E1699FB001112466
:1019000050E0440F551F640F751F90E3899F600DD1
:10191000711D1124CB01869608950F931F93CF93C9
:10192000DF930E947C0C8C010E941829C82FD0E004
:10193000DC2FCC27C80101960E9418299E01282B74
:10194000C901DF91CF911F910F9108950F931F93BC
:10195000CF93DF93122F032F0E947C0CEC01602F9A
:101960000E942629612FCE010196DF91CF911F9110
:101970000F910C942629AF92BF92CF92DF92EF92F3
:10198000FF921F93CF93DF938CEAC82E80E0D82E6E
:10199000D0E07601C0E014C0F50125913491412FCB
:1019A0006C2F8D2F0E94A60C82E0A80EB11C1F5F29
:1019B000183091F780E1E80EF11CCF5FC33019F0C9
:1019C000570110E0E9CFDF5F80E3C80ED11CD430AF
:1019D00001F7DF91CF911F91FF90EF90DF90CF90B3
:1019E000BF90AF900895EF92FF920F931F93CF9304
:1019F000DF93EC018A017C01E60EF71ECE0186968C
:101A0000CE15DF0539F4DF91CF911F910F91FF9033
:101A1000EF900895C03CD10540F40E941829F801C8
:101A200080830F5F1F4F2196E9CFF8011082F9CF15
:101A3000CF92DF92EF92FF920F931F93CF93DF939A
:101A40007C016A018C01060F171FEC01CE018696FE
:101A5000C017D10749F4DF91CF911F910F91FF90EB
:101A6000EF90DF90CF900895C03CD10540F4FE0187
:101A7000EE19FF09EC0DFD1D60810E9426292196BB
:101A8000E5CF462F843038F4733028F4683018F4EA
:101A9000672F0C948D0C90E080E0089580E108950C
:101AA0008AE193E00895EF92FF920F931F93CF93F3
:101AB000DF93EC018A017C01E60EF71ECE018A510C
:101AC0009F4FCE15DF0539F4DF91CF911F910F9114
:101AD000FF90EF900895CA3123E0D20740F40E94AE
:101AE0001829F80180830F5F1F4F2196E7CFF80177
:101AF0001082F9CFCF92DF92EF92FF920F931F9354
:101B0000CF93DF937C016A018C01060F171FEC0154
:101B1000CE018A519F4FC017D10749F4DF91CF9171
:101B20001F910F91FF90EF90DF90CF900895CA31F1
:101B300023E0D20740F4FE01EE19FF09EC0DFD1D74
:101B400060810E9426292196E3CFCF93DF93C6EED2
:101B5000D0E060E0CE010E9426292196C11584E0E4
:101B6000D807B9F7DF91CF910895DF92EF92FF92F6
:101B70000F931F93CF93DF9300D000D0CDB7DEB784
:101B8000F82E8FE08F1540F08FEF93E00E94182918
:101B900006EE10E08823C1F00F900F900F900F9089
:101BA000DF91CF911F910F91FF90EF90DF900895FB
:101BB000011584E0180781F3C8010E9418298111DA
:101BC00001C0FA940F5F1F4FF110F2CF19821A82F1
:101BD0001B821C82DD24D39478018FEFE81AF80A67
:101BE000C8010E94182989831A828823A9F29FEFCD
:101BF000980F933078F48A83D9820E5F1F4FC70104
:101C00000E9418298B83882339F2CE0101960E9405
:101C1000F206E2CF8701F9CFAF92BF92CF92DF9267
:101C2000EF92FF920F931F93CF93DF937C015B01A1
:101C3000C42FD22FFC0182818823F9F040939501B3
:101C40000E94961D909394018093930180E28C0FE3
:101C5000883008F061C0C77081E001C0880FCA9564
:101C6000EAF7DF91CF911F910F91FF90EF90DF90F6
:101C7000CF90BF90AF900C94CD121091950114139A
:101C800040C080919301909194010E94AE1D6C011F
:101C9000B701C5010E94B117C816D90690F5C0E278
:101CA000CD0F1D17B9F080E2810F883040F4177016
:101CB00081E001C0880F1A95EAF70E94D412C8305B
:101CC00048F481E09D2F977001C0880F9A95EAF73C
:101CD0000E94CD12802F0E94BA12C830E8F4D7704B
:101CE00081E001C0880FDA95EAF7DF91CF911F916B
:101CF0000F91FF90EF90DF90CF90BF90AF900C943A
:101D0000D41280E28C0F883038F4C77081E001C0B3
:101D1000880FCA95EAF7E9CFDF91CF911F910F9114
:101D2000FF90EF90DF90CF90BF90AF9008950F930A
:101D30009C01CB01233F4CE5340759F1A8F4283D21
:101D4000FCE53F0701F1293D4CE53407D1F1273D82
:101D50003C4591F406E221EE41EE67ED7CE50E9400
:101D60000C0E80E00F910895253FFCE53F07E9F058
:101D7000B0F0263F3C45F9F0FC018281882339F11F
:101D800010929501EFCF07E225EE45EE68ED7CE578
:101D9000E6CF06E221EE40EE63EF7CE5E0CF07E21E
:101DA00025EE44EE64EF7CE5DACF06E221EE42EE6A
:101DB00065EF7CE5D4CF07E225EE46EE66EF7CE5E5
:101DC000CECF08E221E045EE69ED7CE5C8CF81E0A9
:101DD000C9CFCF93DF93EC01FB018281882309F403
:101DE00019C1C230FCE5DF07C0F1C6319CE5D90757
:101DF00030F09E012A5F3C452930310570F50E9484
:101E0000A31B9093490280934802C031ECE5DE07A2
:101E100009F4CFC008F05BC0C8308CE5D80709F4DE
:101E2000B6C088F5C430ECE5DE0709F4A8C0C0F4FC
:101E3000C2308CE5D80709F49CC0809148028260CA
:101E4000C330DC4509F498C0809148029091490262
:101E50000E94B11B0E943A1580E0DF91CF91089556
:101E6000809148028061C630ECE5DE0709F484C049
:101E7000809148028860C730DC4508F47DC08091BD
:101E80004802806279C0CC308CE5D80709F489C05B
:101E900070F4809148028C60CA30ECE5DE0709F4EA
:101EA0006BC008F478C0809148028E7F65C0CE3048
:101EB0008CE5D80709F479C0809148028B7FCF3038
:101EC000DC4508F459C0809148028F7E55C0CB3F55
:101ED000ECE5DE0709F457C030F5C3318CE5D807CF
:101EE00009F46FC078F4C131ECE5DE0709F465C090
:101EF000C231DC4509F0A8CF0E943A158091480212
:101F00008F773AC0C5318CE5D80709F462C008F470
:101F100076C0809149028160CA3FDC4509F094CFC8
:101F20008093490291CFCF3FFCE5DF0709F44DC014
:101F300088F4809149028D7FCD3F9CE5D90781F3DC
:101F4000809149028E7FCE3FDC4550F3809149025B
:101F50008360E6CFC130FDE5DF0709F459C008F41E
:101F600044C080E0C230DD4509F06ECF0E942F1CD6
:101F70006BCF8091480281608093480265CF809149
:101F800048028460F9CF809149028260C9CF809174
:101F900048028064F1CF0E943A158091480280681F
:101FA000EBCF809148028D7FE7CF80914802877FF9
:101FB000E3CF809148028F7DDFCF809148028F7BF5
:101FC000DBCF80914802837FD7CF809149028C7FFD
:101FD000A7CF8091480282FB992790F921E09227B0
:101FE00090FB82F990FB83F9C7CF80914902982F2B
:101FF000909591708E7F892B90FB81F991CF0E94F3
:102000003A1590914802892F97FB87F98058B4CFF1
:1020100081E0ACCF81E021CFCF93DF93EB0186311C
:102020009C4511F50E94BE1A9A81992399F08A7AEB
:1020300091E009F490E090939601811109C089E242
:102040000E94991A0E940A1B80E0DF91CF910895A7
:1020500085E3F6CF80919601811104C089E20E9448
:10206000A01AF0CF85E3FBCF81E0EFCF90939C01E6
:1020700080939B010895E0919B01F0919C01309722
:1020800021F00190F081E02D099480E00895EF9215
:10209000FF920F931F93CF93DF93EC01E0919B018D
:1020A000F0919C01309709F446C080910C0188237F
:1020B00041F08091480287FF04C08881898385E0D0
:1020C00088830280F381E02DCE010995809116026C
:1020D00082FF31C080FF04C085E592E00E944C057C
:1020E00010E000E08FE4E82E82E0F82E80911602E6
:1020F00080FF0EC0FE01E00FF11F80811F928F93C1
:10210000FF92EF920E94E5050F900F900F900F90B5
:102110000F5F1F4F0830110549F78091160280FFAD
:102120000AC08DE492E0DF91CF911F910F91FF9053
:10213000EF900C944C05DF91CF911F910F91FF9080
:10214000EF9008952091990130919A01281739074D
:1021500071F090939A0180939901E0919B01F09125
:102160009C01309721F00680F781E02D09940895B5
:1021700020919701309198012817390771F09093B9
:10218000980180939701E0919B01F0919C01309719
:1021900021F00084F185E02D0994089585B78068C9
:1021A00085BF85B7806885BF0895089508950C940C
:1021B000D51008950C94D9100E94CE100E94D6100C
:1021C0000C94D71081E008950C94E2100E948D1DAC
:1021D0000E94260A0E946E0B0E941B1E0C94DA10AD
:1021E000CF93C82F8091160282FF1EC080FF1CC0B3
:1021F0008EE692E00E944C058091160280FF14C08A
:102200001F92CF9389E692E09F938F930E94E505FA
:10221000809116020F900F900F900F9080FF04C0D6
:1022200087E692E00E944C058C2FCF910C94D60744
:10223000BF92CF92DF92EF92FF920F931F93CF93B3
:10224000DF93CDB7DEB72A970FB6F894DEBF0FBE87
:10225000CDBF0E94730A0E94E410882309F45CC079
:102260008EE9C82E81E0D82E10E000E0B02E802F3D
:102270000E94D609E82EF601F1906F01F81609F4D4
:1022800045C08091160281FD0E94DC099F2D9E258C
:1022900080E0FF24F394292F2F21A1F18E83BF82A8
:1022A000EF2081E009F480E088870E94961D81601C
:1022B000782F9A8789874E815F8168858A850E94F9
:1022C000AD11F801E256FE4F8081F826F0820E949F
:1022D0003B1090919D01891781F10E943B108093E2
:1022E0009D012A960FB6F894DEBF0FBECDBFDF91D9
:1022F000CF911F910F91FF90EF90DF90CF90BF9003
:102300000C94F0108F5FFF0C883029F60F5F1F4F81
:102310000330110509F0AACF8FEF89838A831B82CE
:102320000E94961D8160782F9D838C8349815A81FC
:102330006B818D810E94AD11CACF2A960FB6F89499
:10234000DEBF0FBECDBFDF91CF911F910F91FF90E8
:10235000EF90DF90CF90BF900895CF93DF93CDB7EC
:10236000DEB72B970FB6F894DEBF0FBECDBF4F83FD
:10237000588769877A878B871E821D8285E0FE01D8
:102380003796DE01119601900D928A95E1F7498109
:102390005A816B817C818D819E812B960FB6F8943A
:1023A000DEBF0FBECDBFDF91CF910C94B417FC01FF
:1023B000808191810C946B1ACF93C82F882309F4E4
:1023C00088C08238C1F40E943B1081FD82C089E33D
:1023D0000E94991A0E940A1B2FEF81EE94E021506F
:1023E00080409040E1F700C0000089E30E94A01AFD
:1023F000CF910C940A1B8338A1F40E943B1080FDFE
:1024000068C083E50E94991A0E940A1B2FEF81EE93
:1024100094E0215080409040E1F700C0000083E547
:10242000E5CF8438A1F40E943B1082FD52C087E4BE
:102430000E94991A0E940A1B2FEF81EE94E021500E
:1024400080409040E1F700C0000087E4CFCF8CEFE0
:102450008C0F813AB8F48C2F0E94AC20811139C0C6
:102460006C2F80910001909101010E94481C8823EB
:1024700029F08C2F0E94A01A0E940A1B8C2F0E9408
:10248000991AB6CF80E28C0F883048F4C77081E08B
:1024900001C0880FCA95EAF70E94C11AA9CFEBE5DF
:1024A000EC0FE33040F4F0E0E958FE4F808190E01B
:1024B000CF910C94A210C85AC73158F4EC2FF0E019
:1024C000EE0FFF1FE75BFE4F80819181CF910C944F
:1024D000B810CF910895882309F44BC0823871F465
:1024E0000E943B1081FF45C089E30E94991A0E9417
:1024F0000A1B89E30E94A01A0C940A1B833859F422
:102500000E943B1080FF35C083E50E94991A0E940B
:102510000A1B83E5EFCF843859F40E943B1082FFF9
:1025200028C087E40E94991A0E940A1B87E4E2CF20
:102530009CEF980F913AF0F290E2980F983050F497
:10254000877091E001C0990F8A95EAF7892F0E9460
:10255000C71AD2CF9BE5980F933020F490E080E02B
:102560000C94A210885A873120F490E080E00C94FB
:10257000B8100895CF93C82F0E94DC11C93349F4D5
:102580002FEF87EE93E0215080409040E1F700C0AC
:1025900000008C2FCF910C946B12882321F00E94A5
:1025A000C11A0C940A1B0895882321F00E94C71AAF
:1025B0000C940A1B0895BF92CF92DF92EF92FF9284
:1025C0000F931F93CF93DF936C01D62FC72FFC017E
:1025D000058102950F70128111110E94DE1A0E946E
:1025E000B71AE82E882391F01123D1F08C2F807F29
:1025F000803421F080E28D0F883090F082E00E94DC
:10260000551B0E94B71A91E0E82EE926BC2EB29421
:102610009FE0B922EB2DF0E0E159F64D0C940B2927
:10262000E12CF4CF0C2F0F70C07F11F00295007FCA
:102630001123A9F0002359F080E28D0F883010F0AB
:10264000D11109C0802F0E94C11A0E940A1B8D2F30
:102650000E94DC1114C0802F0E94D11AF6CF8D2F5A
:102660000E946B12002359F080E28D0F883010F029
:10267000D1112CC0802F0E94C71A0E940A1B2B2D3B
:102680002850330B2430310520F40E943B100E9467
:10269000D607EE2009F493C10E94B31A80FD8FC1C2
:1026A000F60112820E94AD1A0E943819C6010E94DA
:1026B00000150E94AD1ADF91CF911F910F91FF90ED
:1026C000EF90DF90CF90BF900C945919802F0E940B
:1026D000D71AD3CFFC2FFF70FF2EC07FC03219F066
:1026E000F29480EFF822DD2369F0D13049F1112313
:1026F00091F1002351F1F601858180FFA8CF8F7001
:10270000858323C0112381F0011106C00E94F11AB4
:102710008F290E94CD12B3CF0130C1F70E94F11A68
:102720008F290E94F71AABCF011106C00E94001B2F
:102730008F2D0E94D412A3CF013009F4A0CFF6CF81
:10274000112329F0063008F09ACF8F2DE2CF053003
:1027500008F095CFEDCF002359F3D93349F4FFEFBB
:1027600027EE33E0F15020403040E1F700C0000098
:102770008D2F0E946B1283CF8C2F86958695837048
:1027800069F0813009F07BCF8D2F9C2F9370111150
:1027900002C090E080E00E94B81071CF8D2F9C2F76
:1027A0009370111102C090E080E00E94A21067CFE8
:1027B0008C2F837009F041C0111161CF4D2F4295CC
:1027C00046954770440F440F0D2F0F7010E030E016
:1027D00020E0042E04C0000F111F221F331F0A9493
:1027E000D2F760E070E0CB01D4FF0FC06FE070E083
:1027F00080E090E004C0660F771F881F991F4A95FC
:10280000D2F76095709580959095C695C695C370E2
:10281000602B712B822B932BC23049F058F4C130BE
:1028200019F00E94EA182BCF0E94D81828CF0E94D6
:10283000FC1825CF0E94D61822CF8695112311F0BF
:102840008C2F8170882309F41ACF4D2F429546951D
:102850004770440F440F0D2F0F7010E030E020E060
:10286000042E04C0000F111F221F331F0A94D2F739
:1028700060E070E0CB01D4FF0FC06FE070E080E05B
:1028800090E004C0660F771F881F991F4A95D2F702
:102890006095709580959095C695C695C370602B90
:1028A000712B822B932BC23049F058F4C13019F0B0
:1028B0000E94AF19E4CE0E949D19E1CE0E94C11979
:1028C000DECE0E941219DBCECF70112329F08C2F9F
:1028D0000E9438198D2F1DCF8D2F0E94D4128C2F5E
:1028E0000E945919CCCED23F89F160F4D03FC9F093
:1028F000D13F29F1112309F442C00111A8CE8C2F38
:102900008F7121C0D33F39F1D43FA1F7112369F171
:10291000CF718C2F0E94381963E08C2F0E94401BCE
:10292000AECE112341F0053008F0A9CE8C2F8F7167
:102930000E947C19A4CE063008F0A1CEF7CF8C2FD0
:102940008F71112369F20E94381999CE8C2F8F71E3
:102950001123C9F3C5CF112329F08C2F8F710E9449
:1029600023198DCE0E941E198ACE81E00E94551B2C
:10297000023008F484CE82E00E94551B80CE0023F2
:1029800059F0D93309F0F4CE8FEF97EEE3E08150A0
:102990009040E040E1F7EACE8C2F8F71A1CF4C2F11
:1029A0004F706D2FC6010E94DE070E944E1867CE41
:1029B0004C2F4F706D2FC6010E94E10760CEDF9152
:1029C000CF911F910F91FF90EF90DF90CF90BF902C
:1029D00008950F931F93CF93DF93EC016881798162
:1029E0008A810E94751A8C010E94D3190E94D51801
:1029F000B801CE01DF91CF911F910F910C94DB12A2
:102A0000CF93DF93EC018B819C81892B29F0888106
:102A1000998189238F3F59F4DF91CF910895CE0199
:102A20000E94E914CE01DF91CF910C943306CE01C0
:102A30000E9477078111F3CF0E94B71A882361F3B0
:102A40008A81882349F382E0DF91CF910C94551B52
:102A50000E94DE1A0E94EE1A0E940A1B90E080E09B
:102A60000E94A21090E080E00C94B8100E94A71A77
:102A70000C9428150E94CE1A0C943615E92FE29575
:102A8000EF70E250EE3070F4F0E0E158F64D0C9447
:102A90000B29803F19F020F4883E20F481E008954E
:102AA000843FE1F380E00895883EC0F3813FD1F791
:102AB000F5CF93FB882780F908950E946B1A0C9438
:102AC0003E15CF93DF9300D000D00F92CDB7DEB785
:102AD0000F900F900F900F900F90DF91CF9108956E
:102AE000CF93DF9300D000D000D0CDB7DEB72696CD
:102AF0000FB6F894DEBF0FBECDBFDF91CF91089522
:102B00001F93CF93DF93C091A20116E08091A301A0
:102B10008C1304C0DF91CF911F910895D0E01C9FCA
:102B2000F0011D9FF00D1124EC55FE4F40815181A5
:102B300062817381848195810E9470152196C7708E
:102B4000E5CF4091D4015091D5016091D6017091AB
:102B5000D7018091D8019091D9010C9470151F93E1
:102B6000CF93DF938091D901807FA9F48091D60122
:102B7000882389F08091A201C091A3016091D401C2
:102B80007091D501A091D701B091D801D62FD7234C
:102B900016E0C81304C0DF91CF911F91089590E013
:102BA000109711F0DF3F19F401968770F2CF189F4C
:102BB0009001199F300D1124F901EC55FE4F418110
:102BC0004713F2CF40814613EFCF42814111ECCF42
:102BD000438154814A1B5B0B4039514028F7809157
:102BE000D9018F7080618093D901F901E755FE4FBB
:102BF00080818F708061808384ED91E00E94001558
:102C0000DF91CF911F910C948015AF92BF92CF921C
:102C1000DF92EF92FF920F931F93CF93DF93CDB785
:102C2000DEB761970FB6F894DEBF0FBECDBF8C0143
:102C300085E0F801DE011D9601900D928A95E1F77D
:102C4000F80140815181E28084EDC82E81E0D82EC8
:102C50006091D7017091D8016115710509F462C1C5
:102C60009091D4012091D501892F82238F3F09F4BF
:102C700059C1A380B480F090D601F501E61BF70B93
:102C8000BF01FF2009F4FCC08091D901382F307FAB
:102C90006039714008F0B2C0311179C0FE2C2513A3
:102CA00023C0941321C0E1101FC08F7080618093F6
:102CB000D9010E94A115C6010E9400158091D90179
:102CC000F80185838F2D61960FB6F894DEBF0FBE95
:102CD000CDBFDF91CF911F910F91FF90EF90DF90CB
:102CE000CF90BF90AF900895AB2829F0842F852313
:102CF0008F3F09F033C180E0F82FF170DF2E80FFA5
:102D00003CC08091A2012091A30136E0821315C03E
:102D10004D875E878D859E850E946B1A292F22958F
:102D20002F702230F0F0243018F59F70F1F0F80188
:102D30009581907FD1F4D12C1EC090E0389FF00196
:102D4000399FF00D1124EC55FE4F6181651306C0CB
:102D50006081641303C062816E110FC00196877099
:102D6000D5CF9F7011F0882331F3805E883018F33F
:102D7000C8010E940015FD2CA5CFEE2009F4A2CFBA
:102D80008091D90181608093D901F12C9BCF2513CB
:102D900006C0941304C0F801EE2009F48DC04D87DD
:102DA0005E878D859E850E945D15882319F1EE2032
:102DB00009F18091D901803270F02091D4013091D5
:102DC000D50138872F831986BB86AA868C87CE01CA
:102DD00007960E94001586E0F801A4EDB1E001908D
:102DE0000D928A95E1F70E94AF150E94A115FF246C
:102DF000F39468CFC8010E940015F9CF311113C0B8
:102E00007A2DB98AA88A6E2D89890E94611584ED70
:102E100091E00E94001586E0F60111928A95E9F78B
:102E20000E94A115B2CF25130FC094130DC0E1105D
:102E30000BC0F8018583C8010E94001586E0F601E9
:102E400011928A95E9F73ECF4D875E878D859E85E5
:102E50000E945D15882371F2EE2061F28091D90104
:102E6000803208F4B8CF2091D4013091D5013A8353
:102E700029831B82BD82AC828E83CE010196A9CFAD
:102E80006039714008F041C0FE2CEE2009F4B2CF49
:102E900025132AC0941328C08091D90180FD1BC03E
:102EA000982F907FC1F0F8018583903F31F0982FE3
:102EB000907F905F8F70892B8583C8010E940015D9
:102EC00086E0F801A4EDB1E001900D928A95E1F75A
:102ED0000E94A115F7CE86E0F801A4EDB1E00190C3
:102EE0000D928A95E1F7EECE4D875E878D859E85A2
:102EF0000E945D1581116FCF8091D901816080930F
:102F0000D901C8010E940015DDCE7A2DB98AA88AA0
:102F10006E2D89890E94611586E0F60111928A95CD
:102F2000E9F7D6CFEE2009F465CF4D875E878D8512
:102F30009E850E945D15F82E882309F45BCF86E0FC
:102F4000F801A4EDB1E001900D928A95E1F784EDCE
:102F500091E00E94D7110E94AF15BACF81E08E2573
:102F6000CBCE80E991E008951F93CF93DF93CDB747
:102F7000DEB72C970FB6F894DEBF0FBECDBF4F83E0
:102F8000588769877A878B879C87CE0107960E942E
:102F90000516882369F08A859B85892B39F04F8136
:102FA0005885842F85238F3F09F071C016E05FC0DC
:102FB00086E0FE013796DE01119601900D928A950A
:102FC000E1F78A859B85892B89F38F8198858923F1
:102FD0008F3F61F32091A30130E0C9010196877012
:102FE00099274091A2014817190671F40E943A15D9
:102FF0001092A3011092A20186E0E4EDF1E0DF015E
:103000001D928A95E9F7D2CF96E0929FD001939FC7
:10301000B00D1124AC55BE4FFE01319601900D92BA
:103020009A95E1F78093A3010E948015BFCF819FFD
:10303000C00111248C559E4F0E9405168823E9F08B
:10304000E091A2011E9FF0011124EC55FE4F40813A
:10305000518162817381848195810E947015809174
:10306000A20190E00196877099278093A201809138
:10307000A2019091A3018913DACF2C960FB6F89490
:10308000DEBF0FBECDBFDF91CF911F91089569853F
:103090007A858B859C850E94701588CFEF92FF9270
:1030A0000F931F93CF93DF938C01892B81F0F12C29
:1030B000EE24E394E8012196F8018491843770F4BA
:1030C000843008F05FC08130B1F08230A1F1DF912F
:1030D000CF911F910F91FF90EF900895853709F4DC
:1030E0004CC008F43DC09CE7980F903780F78F776D
:1030F0000E946B1249C00E5F1F4FFE01849190E247
:10310000980F983060F48770FE2D01C0FF0F8A95EC
:10311000EAF78F2F0E94E11A0E940A1B02C00E9448
:10312000DC118F2D815030F2EFE9FFE03197F1F79C
:1031300000C00000F7CF0E5F1F4FFE01849190E2A8
:10314000980F983050F48770FE2D01C0FF0F8A95BC
:10315000EAF78F2F0E94E71ADFCF0E946B12E1CFB0
:103160000E5F1F4FFE01C491C150D8F28FE99FE05E
:103170000197F1F700C00000F7CF0E5F1F4FFE016F
:10318000F490CFCF0E94DC118E01CBCF08950C9428
:10319000C6180E94C7186093ED017093EE018093EA
:1031A000EF019093F0010C94281508950C94C91820
:1031B0000F931F930091ED011091EE012091EF010B
:1031C0003091F001602B712B822B932B1F910F916B
:1031D0000C94C9180F931F930091ED011091EE010B
:1031E0002091EF013091F00160237123822393231A
:1031F0001F910F910C94C9180F931F930091ED012B
:103200001091EE012091EF013091F00160277127BC
:10321000822793271F910F910C94C9180C94C618FC
:103220000C940E190E9410196093E9017093EA0141
:103230008093EB019093EC010C94281560E070E012
:10324000CB010C9412190F931F9341E050E060E002
:1032500070E08A019B0104C0000F111F221F331F61
:103260008A95D2F7C901B8011F910F910C941219D8
:103270000F931F9341E050E060E070E004C0440F02
:10328000551F661F771F8A95D2F78091E9019091AB
:10329000EA01A091EB01B091EC018A019B01082B9E
:1032A000192B2A2B3B2BC901B8011F910F910C94AC
:1032B00012190F931F9341E050E060E070E004C0EA
:1032C000440F551F661F771F8A95D2F7CB01BA01AD
:1032D00060957095809590950091E9011091EA01B3
:1032E0002091EB013091EC01602371238223932321
:1032F0001F910F910C9412190F931F9341E050E00E
:1033000060E070E004C0440F551F661F771F8A9568
:10331000D2F78091E9019091EA01A091EB01B0917F
:10332000EC018A019B01082719272A273B27C9019D
:10333000B8011F910F910C9412190F931F930091D4
:10334000E9011091EA012091EB013091EC01602B31
:10335000712B822B932B1F910F910C9412190F93A9
:103360001F930091E9011091EA012091EB01309146
:10337000EC0160237123822393231F910F910C94FE
:1033800012190F931F930091E9011091EA01209106
:10339000EB013091EC0160277127822793271F9161
:1033A0000F910C9412190895990F990F990F890F85
:1033B000982F977041E001C0440F9A95EAF78695DF
:1033C0008695869595E0899FF0011124E652FE4F7F
:1033D00030E020E070E05191DF011197CB01022E27
:1033E00002C0969587950A94E2F7817081958527AA
:1033F000842385278C932F5F3F4F2530310559F764
:103400000895990F990F990F890F982F97708695A6
:103410008695869525E0829FF0011124E652FE4FA5
:1034200050E040E080E0219130E0092E02C0369566
:1034300027950A94E2F721703327042E01C0220F4A
:103440000A94EAF7822B4F5F5F4F4530510559F7D9
:103450000895BF92CF92DF92EF92FF920F931F9346
:10346000CF93DF938C01C090E901D090EA01E09006
:10347000EB01F090EC018091ED019091EE01A091B3
:10348000EF01B091F001C82AD92AEA2AFB2ACFE13C
:10349000D0E0BC2ED701C6010C2E04C0B695A7956E
:1034A000979587950A94D2F780FD0EC0219788F7EB
:1034B000B12C8B2DDF91CF911F910F91FF90EF9049
:1034C000DF90CF90BF900895B8018C2F0E94EA073B
:1034D000019761F3EECFCF93DF93EC010E94291A9D
:1034E000BE01DF91CF910C94EA071F93CF93DF9336
:1034F000EB019091A101992331F0CB01DF91CF91A4
:103500001F910C946B1A882379F0CB010E94291A21
:10351000182F682FCE010E94D419BE01812FDF9190
:10352000CF911F910C94EA07CB010E94011A182F2A
:10353000F4CF682F80910001909101010C94EA1C56
:10354000682F80910001909101010C94F51C8091ED
:103550000001909101010C94001D8091F10185956D
:103560008595859508958091F101877008959091D2
:10357000F101977081E009F480E0089580911502CF
:10358000089590911502892B8093150208958095D6
:1035900090911502982390931502089510921502A8
:1035A000089590911402892B8093140208958095B8
:1035B000909114029823909314020895109214028B
:1035C000089590911302892B80931302089580959A
:1035D000909113029823909313020895109213026E
:1035E00008958091F201089508950C94F41A909131
:1035F000F201981721F08093F2010C94F51A0895C6
:103600008091F201882329F01092F20180E00C945D
:10361000F51A0895E0910001F091010180911502E1
:103620008083E0910001F09101018081909114026A
:10363000892B8083E0910001F091010180819091BC
:103640001302892B80839091F201992381F0E091FC
:103650000001F09101018081892B8083809100011C
:10366000909101010E94341C81110E94001B8091E5
:103670000001909101010C94471008950C943D1B9A
:1036800098E0899F90011124622B6093F1010E94C0
:1036900038198091F1018595859585950C943E1B8F
:1036A0001092F10180E00C943E1B9091F101809505
:1036B00089238093F101282F277071F4282F082E79
:1036C000000C330B9217130639F085958595859577
:1036D0000E9459190C94501B089590938F01809368
:1036E0008E010895829590E09C01220F331F220FD6
:1036F000331F2C7C95958795959587958373282BFB
:1037000030E0C901880F991F8A7A3595279525756C
:10371000822B08956FEF7FEF90E080E00C944429B6
:1037200090E080E00E94202921E08C3E9E4F09F02D
:1037300020E0822F089582E090E00C94182983E025
:1037400090E00C941829CF9384E090E00E9418290F
:10375000C82F81E290E00E941829982F8C2FCF91DA
:103760000895CF93C92F682F84E090E00E94262906
:103770006C2F81E290E0CF910C942629AB01BC0123
:103780008FE090E00C943829AB01BC0183E190E01C
:103790000C94382960E070E0CB010C94C41B60E00D
:1037A00070E0CB010E94BE1B0C94CA1B6CEE7EEF36
:1037B00090E080E00E94442960E082E090E00E9476
:1037C000262960E083E090E00E9426291092ED0116
:1037D0001092EE011092EF011092F00160E084E08F
:1037E00090E00E94262960E081E290E00E94262974
:1037F00060E085E090E00E94262960E086E090E0AD
:103800000E9426296FEF87E090E00E94262940E081
:1038100050E0BA0188E090E00E94382960E08DE035
:1038200090E00E94262940E050E0BA0188E190E053
:103830000E94382960E087E190E00E94262940E05C
:1038400050E0BA018CE190E00E94382960E080E20B
:1038500090E00E9426290C94CF1B0C94D61B682F55
:103860008EE090E00C942629FC01329680910C01A8
:10387000882321F0809148029EE187FF96E080E056
:10388000915008F4089521912223D1F38F5FF8CF4E
:10389000662301F120910C012223F1F020914802CE
:1038A00027FF1AC0462F4695469546954E3190F40F
:1038B000677021E030E002C0220F331F6A95E2F703
:1038C000840F911DFC01828190E02823392381E03F
:1038D000232B69F480E00895FC013296089621912B
:1038E000261721F0E817F907D1F7F4CF81E0089502
:1038F0009C01FC0132969FEF80E04191461751F008
:103900009F3F19F4411101C0982F8F5F8630A9F7AE
:103910009F3F09F40895290F311D97FD3A95F9014C
:1039200062830895FC01329608962191261303C004
:10393000DF0111971C92E817F907B9F70895E62FF0
:10394000E695E695E695EE3170F4E80FF92FF11D56
:10395000677021E030E001C0220F6A95EAF78281AA
:10396000822B828308958091160280FF0CC01F92E3
:103970006F938FE992E09F938F930E94E5050F90DC
:103980000F900F900F900895E62FE695E695E69537
:10399000EE3178F4E80FF92FF11D677021E030E087
:1039A00001C0220F6A95EAF720958281282322839D
:1039B00008958091160280FF0CC01F926F9381E8DA
:1039C00092E09F938F930E94E5050F900F900F90C8
:1039D0000F90089520910C01222329F02091480294
:1039E00027FD0C949F1C0C94781C20910C01222321
:1039F00029F02091480227FD0C94C41C0C94921CC1
:103A0000FC01329680910C01882351F0809148028C
:103A100087FF06C08EE1DF011D928A95E9F70895C0
:103A200086E0F9CF089508950C94131D0E94141D8B
:103A300080914E02843049F11092170288E190E0A3
:103A400020E40FB6F894A895809360000FBE2093F1
:103A5000600080E00E94D6070E94141D83B7817F1A
:103A6000846083BF83B7816083BF7894889583B770
:103A70008E7F83BF0FB6F894A8958091600088610F
:103A800080936000109260000FBE08950895CF9358
:103A90000E94121D0E94730A0E94461DC0E08C2FD6
:103AA0000E94D609811105C0CF5FC330C1F7CF9105
:103AB000089581E0FCCF08950C945B1D0E943A1597
:103AC0000E943B100E94D6070C945C1D1F921FB6EB
:103AD0001F9211248F939F93AF93BF9380911702EE
:103AE000811113C08091440290914502A091460239
:103AF000B09147024196A11DB11D8093440290935D
:103B00004502A0934602B0934702BF91AF919F91A7
:103B10008F911F901FBE1F90189582E084BD93E087
:103B200095BD9AEF97BD80936E0008952FB7F894D6
:103B30008091440290914502A0914602B0914702C3
:103B40002FBF08952FB7F8946091440270914502F9
:103B500080914602909147022FBF08959C014FB774
:103B6000F8948091440290914502A0914602B09150
:103B700047024FBF821B930B089578941F921FB684
:103B80001F9211248F939F93AF93BF938091440210
:103B900090914502A0914602B09147020196A11D65
:103BA000B11D8093440290934502A0934602B093C6
:103BB0004702BF91AF919F918F911F901FBE1F90A1
:103BC000189581E08093E00080E28093D800109205
:103BD000C9008FE19EE40197F1F700C0000087E083
:103BE00090EBDC018093570290935802A093590206
:103BF000B0935A0288E19CE00FB6F894A8958093A0
:103C000060000FBE90936000FFCF0C945B0B0E948E
:103C1000730A8FE39CE90197F1F700C000000E944E
:103C2000730A80E00E94D60980FF04C00E94051E2E
:103C30000C94E11D08950E94901B811102C00E9406
:103C40002D1C0E949B1B809316020E94A31B909325
:103C50004902809348020E949F1B682F70E090E009
:103C600080E00E94D6186091E9017091EA0180918C
:103C7000EB019091EC010C941019CF93C82F1F9277
:103C80008F9383EC92E09F938F930E94E50561E010
:103C900070E080E090E004C0660F771F881F991FD6
:103CA000CA95D2F70E94D6180F900F900F900F90E0
:103CB000CF910C943A15CF93DF93EBEFE80FEF33EE
:103CC00008F040C2F0E0E357F64D0C940B2980E178
:103CD00098E00E944C058CE497E00E944C050E94FD
:103CE0009F1B1F928F9389E497E09F938F930E946D
:103CF000E50587E497E00E944C050E949B1BC82FB6
:103D000084E397E00E944C051F92CF938FE297E0E7
:103D10009F938F930E94E5058DE297E00E944C05EA
:103D200083E297E00E944C058C2F81701F928F9345
:103D300080E297E09F938F930E94E5058EE197E0E4
:103D40000E944C0584E197E00E944C05C1FB882746
:103D500080F91F928F9381E197E09F938F930E9448
:103D6000E5058FE097E00E944C0583E097E00E9414
:103D70004C05C2FB882780F91F928F9380E097E063
:103D80009F938F930E94E5058EEF96E00E944C056D
:103D900085EF96E00E944C05C3FBCC27C0F91F922B
:103DA000CF9382EF96E09F938F930E94E50580EF7B
:103DB00096E00E944C050E94A31BEC018CED96E05E
:103DC0000E944C05DF93CF9387ED96E09F938F93EE
:103DD0000E94E50585ED96E00E944C058CEB96E08F
:103DE0000E944C058C2F81701F928F9389EB96E077
:103DF0009F938F930E94E5058DB79EB780960FB66F
:103E0000F8949EBF0FBE8DBF87EB96E00E944C05D5
:103E100080EA96E00E944C05C1FB882780F91F923A
:103E20008F938DE996E09F938F930E94E5058BE930
:103E300096E00E944C0589E896E00E944C058D2F83
:103E400081701F928F9386E896E09F938F930E94D4
:103E5000E50584E896E00E944C0582E796E00E9422
:103E60004C05D695D1701F92DF938FE696E09F9315
:103E70008F930E94E5058DE696E00E944C058BE548
:103E800096E00E944C05C2FB882780F91F928F9311
:103E900088E596E09F938F930E94E50586E596E07E
:103EA0000E944C0584E496E00E944C05C3FB8827E1
:103EB00080F91F928F9381E496E09F938F930E94E5
:103EC000E5058FE396E00E944C0585E396E00E94AD
:103ED0004C05C4FB882780F91F928F9382E396E0FC
:103EE0009F938F930E94E50580E396E00E944C0526
:103EF0008EE196E00E944C05C5FB882780F91F9251
:103F00008F938BE196E09F938F930E94E50589E163
:103F100096E00E944C058DEF95E00E944C05C6FB93
:103F2000882780F91F928F938AEF95E09F938F9354
:103F30000E94E5058DB79EB780960FB6F8949EBF98
:103F40000FBE8DBF88EF95E00E944C0580EF95E095
:103F50000E944C05C7FBCC27C0F91F92CF938DEE72
:103F600095E09F938F930E94E5058BEE95E00E946C
:103F70004C050F900F900F900F9081E01CC08FEFB9
:103F800097E00E944C050E942D1CF7CF89E394E036
:103F90000E944C05F2CF80911602807F809316021A
:103FA0008EE194E00E944C058BEF97E00E944C0557
:103FB00081E080931802DF91CF9108958FED97E013
:103FC0000E944C050E946807D8CF90911602892F55
:103FD0008E7F90FF81608093160280FF03C083ED87
:103FE00097E0D6CF86EC97E00E944C0580911602B0
:103FF000817F80931602C1CF90911602892F8D7F09
:1040000091FF82608093160281FF08C089EB97E0E0
:104010000E944C05809116028160EBCF8BEA97E0FD
:10402000B7CF90911602892F8B7F92FF8460809387
:10403000160282FF03C08CE997E0EACF8CE897E094
:10404000A7CF90911602892F877F93FF8860809376
:10405000160283FF03C080E897E0DACF83E797E09A
:1040600097CF8FE094E00E944C0589ED93E00E9489
:104070004C0586EA93E00E944C0584E793E00E9499
:104080004C0589E493E084CF8BE393E00E944C05D8
:104090000E943B101F928F9381E293E09F938F9336
:1040A0000E94E50580910C011F928F938AE093E0B6
:1040B0009F938F930E94E50580913D021F928F93FD
:1040C00087EF92E09F938F930E94E50580914802CD
:1040D00087FB882780F91F928F938FED92E09F9343
:1040E0008F930E94E5050E94A21D9F938F937F935B
:1040F0006F9388EC92E09F938F930E94E5058DB7B4
:104100009EB746960FB6F8949EBF0FBE8DBF35CFB3
:104110000E943A1590914802892F97FB87F98058A1
:104120008093480287FF03C089E697E031CF8EE590
:1041300097E02ECF80E00E943D1E1FCF8953FBCF1A
:104140008D51F9CF8CE597E00E944C0580E033CF8C
:1041500080E008950C94A820CF93C82F8091180276
:10416000882331F0813099F01092180280E00DC060
:104170000E94BE1A8232D1F78C2F0E94A820811192
:1041800019C08C2F0E945B1E8170CF9108950E94F0
:10419000BE1A823289F38C2F0E94AA20811119C085
:1041A000C431C9F050F4CB3061F08DEB92E00E9445
:1041B0004C0513C081E090E0E7CFC93261F0C8330D
:1041C000A1F78EE194E00E944C058FEB92E00E94F3
:1041D0004C0581E0D9CF1092180280E0D5CF8091B4
:1041E0003C02089508959FB7F89410921B029FBF58
:1041F00090914E02943009F048C02091E9002F7050
:104200003091EC00932F917030FD90E8922B25E0D7
:104210002093E9002091EB0020FF34C02091EE00B4
:1042200027FF30C020911902222321F02091E800BD
:1042300025FF28C01092190226E03091E80035FFD2
:1042400014C08093F1008091E80085FD27C0809123
:10425000E80080FFFCCF8091E8008E778093E80033
:104260009F709093E90080E0089530914E023430C1
:1042700049F43091EB0035FD05C0215041F481E057
:10428000809319029F709093E9008FEF0895EFE9F2
:10429000FFE03197F1F700C00000CFCF8FB7F8945F
:1042A00021E020931B028FBFDBCFCF93DF9300D0A1
:1042B0000F92CDB7DEB790914E02943011F58983FD
:1042C0007B836A839093E9008FEF9091E80081509F
:1042D00095FD06C095ED9A95F1F700008111F5CF97
:1042E0008091E80085FF0DC050E040E063E070E0A1
:1042F000CE0101960E9420248091E8008E77809361
:10430000E8000F900F900F90DF91CF910895BC01BE
:1043100084E00C945521BC0183E00C945521CF938B
:10432000DF93EC0180910C018823B1F18091480268
:1043300087FF32C060E284E08093E9008FEF9091C4
:10434000E800815095FD06C095ED9A95F1F70000C3
:104350008111F5CF8091E80085FF1BC080910C0191
:1043600070E050E040E0811104C050E040E068E0BF
:1043700070E0CE010E9420248091E8008E77809327
:10438000E80080E2FE01ACE1B2E001900D928A9576
:10439000E1F7DF91CF91089568E081E0CDCFCF9331
:1043A000FC01603221F580914E02843001F5C0910C
:1043B000E900CF702091EC00922F917020FD90E8E1
:1043C000C92B82E08093E9008091E80080FF0CC057
:1043D00050E040E060E270E0CF010E942024809134
:1043E000E8008E778093E800CF70C093E900CF910A
:1043F000089580E498E00E944C0580914D0281115F
:1044000009C00E94FF250E945C268091E200846022
:104410008093E20008958CE398E00E944C0510928E
:104420004D02089588E398E00C944C0584E398E0ED
:104430000C944C0580E398E00E944C050C945E1DA2
:1044400020911A022F5F822F62E30E94FF28992396
:1044500019F020931A02089510921A0280911B02FB
:104460008823F1F080914E028430C1F49091E900EC
:104470009F702091EC00822F817020FD80E8892BB5
:1044800095E09093E9009091EB0090FF04C090912B
:10449000EE0097FD08C08F708093E90010921B0218
:1044A00008951092F1009091E80095FDFACF909157
:1044B000E80090FFF0CF9091E8009E779093E8009D
:1044C000EACF42E061EC81E00E947B2542E261ECB0
:1044D00084E00E947B2542E261EC82E00E947B2521
:1044E00042E260EC83E00E947B2542E261EC85E0E1
:1044F0000C947B2580915002833009F461C030F424
:104500008130D1F1823009F49DC008958A3009F4D8
:1045100089C08B3009F46FC0893009F050C0809198
:104520004F02813209F04BC08091530290915402A6
:10453000009719F0029709F042C08091E800877F48
:104540008093E8008091E80082FF35C09091F300ED
:104550008091F200029729F48091F1008B7F8130E5
:1045600021F48091F10080933C028091E8008B77E8
:104570008093E8000C94AF2580914F02813AF9F4C2
:104580008091E800877F8093E800809153029091AA
:104590005402892B61F460E28CE192E070E00E94A9
:1045A000BE248091E8008B778093E800089560E056
:1045B00090E080E0F3CF80914E028111C3CF089547
:1045C00080914F02813AD9F7809153029091540221
:1045D000892BA9F78091E800877F8093E80080917C
:1045E000E80080FFFCCF80910C018093F100809166
:1045F000E8008E77BDCF80914F02813201F7809124
:10460000530290915402892BD1F68091E800877F64
:104610008093E8000E94AF258091510280930C01A5
:104620000C943A1580914F02813249F68091E8004E
:10463000877F8093E8000E94AF258091520280938B
:104640003D02089580914F02813A09F0B8CF8091E0
:10465000E800877F8093E8008091E80080FFFCCF2E
:1046600080913D02C2CFCDB7DEB7A0970FB6F894C8
:10467000DEBF0FBECDBF84B7877F84BF0FB6F8946F
:10468000A89580916000886180936000109260001E
:104690000FBE80E890E00FB6F8948093610090938D
:1046A00061000FBE0E94DC100E94FF250E945C2664
:1046B0008091E20084608093E20083EF90E20E94A8
:1046C0006D1B78940E94E4280E94E61082E091E03D
:1046D0000E9436108FE198E00E944C0513E0809113
:1046E0004E02853039F10E94181180914E028430BB
:1046F000B1F71093E9008091E80082FFF0CF80913C
:10470000E80090E085FF09C050E040E060E270E022
:10471000CE0101960E946F2491E08091E8008B7792
:104720008093E8009923D9F260E2CE0101960E94BD
:10473000BD0BD5CF8BE198E00E944C050E94161D61
:1047400080914C02882359F20E94471D882339F238
:104750000E940A24C4CF0C94AD23292F3327233081
:10476000310521F168F42130310509F449C02230C6
:10477000310509F44AC090E080E030E020E029C033
:104780002132310581F122323105A9F764307105FA
:1047900090F7FB01EE0FFF1FE258FE4F20813181A1
:1047A00066587E4FFB01808190E013C099278130CD
:1047B000910599F0009741F08230910589F00397B7
:1047C000D1F6E4E4F8E002C0ECE6F8E0849190E091
:1047D0009F01FA01318320830895EAE5F8E0F6CFDE
:1047E000EAE4F8E0F3CF6430710528F6660F771F2E
:1047F000FB01EA57FE4F2081318189E090E0E9CF4B
:1048000082E190E02BEE38E0E4CF8BE790E020E708
:1048100038E0DFCF80E189BD82E189BD09B400FEC7
:10482000FDCF8091D8008F7D8093D8008091E000EB
:1048300082608093E0008091E00081FDFCCF0895CC
:10484000AF92BF92CF92DF92FF920F931F93CF93BD
:10485000DF936C01EB018A010E94CE25F82E8111B5
:1048600023C00115110539F0F80180819181C81B21
:10487000D90BC80ED91EB12CA12C2097A9F080917C
:10488000E80085FD22C08091E8008E778093E800E3
:1048900001151105A1F0F80180819181A80EB91EC2
:1048A000B182A08285E0F82E8F2DDF91CF911F91EC
:1048B0000F91FF90DF90CF90BF90AF9008950E942E
:1048C000CE258823D1F2F82EEFCFF60181916F012A
:1048D0008093F1002197FFEFAF1ABF0ACECFAF92BE
:1048E000BF92CF92DF92FF920F931F93CF93DF93EC
:1048F0006C01EB018A010E94CE25F82E811123C0A4
:104900000115110539F0F80180819181C81BD90B7F
:10491000C80ED91EB12CA12C2097A9F08091E800D7
:1049200085FD22C08091E8008B778093E800011517
:104930001105A1F0F80180819181A80EB91EB18204
:10494000A08285E0F82E8F2DDF91CF911F910F91DE
:10495000FF90DF90CF90BF90AF9008950E94CE253A
:104960008823D1F2F82EEFCF8091F100F6018193E8
:104970006F012197FFEFAF1ABF0ACECFFC018091E4
:1049800055029091560286179707A0F061157105A0
:1049900029F49091E8009E779093E80090E06115EB
:1049A000710551F4911108C08091E80082FF34C074
:1049B00080E00895BC01F2CF80914E028823C1F1BE
:1049C0008530C1F18091E80083FD30C08091E8001E
:1049D00082FDEACF8091E80080FFE1CF8091F30073
:1049E0002091F200382F6115710519F0283031053A
:1049F00058F091E02830310509F090E02091E8006E
:104A00002E772093E800CBCF81918093F100615005
:104A100071092F5F3F4FE7CF80914E02882341F00D
:104A2000853041F08091E80083FFBECF81E008959A
:104A300082E0089583E00895FC01809155029091F1
:104A4000560286179707A0F06115710529F4809129
:104A5000E8008E778093E80090E06115710551F4CD
:104A6000911108C08091E80082FF35C080E0089570
:104A7000BC01F2CF80914E028823C9F18530C9F183
:104A80008091E80083FD31C08091E80082FDEACF8B
:104A90008091E80080FFE1CF8091F3002091F20047
:104AA000382F6115710519F02830310558F091E063
:104AB0002830310509F090E08091E8008E778093EE
:104AC000E800CBCF84918093F10031966150710959
:104AD0002F5F3F4FE6CF80914E02882341F0853013
:104AE00041F08091E80083FFBDCF81E0089582E02E
:104AF000089583E00895982F973028F08F70809361
:104B0000E90081E008959093E900242F762F50E08A
:104B1000981731F07091EC002091ED005091F00069
:104B200021FD02C09F5FE8CF3091EB003E7F3093C4
:104B3000EB003091ED003D7F3093ED003091EB00C4
:104B400031603093EB007093EC002093ED005093B4
:104B5000F0002091EE0027FDE5CF80E008958091E0
:104B60004F0287FF13C08091E80082FF06C080914A
:104B7000E8008B778093E80004C080914E02811199
:104B8000F2CF089580914E028823D9F38091E800F6
:104B900080FFF8CF8091E8008E77ECCF2091E40081
:104BA0003091E50095E6A9012091EC00822F8170FB
:104BB00020FF06C08091E80080FF06C080E00895D5
:104BC0002091E80022FD1AC080914E02882389F0CE
:104BD000853089F08091EB0085FD0FC02091E400C5
:104BE0003091E50042175307F9F29150E1F684E065
:104BF000089582E0089583E0089581E008950E9479
:104C00006D260E947526E0EEF0E080818160808351
:104C1000E8EDF0E080818F77808319BCA7EDB0E0EC
:104C20008C918E7F8C9380818F7E808310924D0239
:104C300008950F931F93CF93DF930E946D260E94D8
:104C40007526C8EDD0E088818F7788838881806859
:104C5000888388818F7D888319BC10924E021092C0
:104C60004A0210924C0210924B0200EE10E0F80142
:104C700080818B7F808388818160888342E060E0CF
:104C800080E00E947B25E1EEF0E080818E7F8083D2
:104C9000E2EEF0E0808181608083808188608083A3
:104CA000F80180818E7F8083888180618883DF9195
:104CB000CF911F910F910895E8EDF0E080818F7EF4
:104CC0008083E7EDF0E080818160808384E082BFB3
:104CD00081E080934D020C941926E8EDF0E080818C
:104CE0008E7F80831092E20008951092DA00109275
:104CF000E10008951F920F920FB60F9211242F9387
:104D00003F934F935F936F937F938F939F93AF9353
:104D1000BF93EF93FF938091E10082FF0BC08091DE
:104D2000E20082FF07C08091E1008B7F8093E10069
:104D30000E9420228091DA0080FF19C08091D80063
:104D400080FF15C08091DA008E7F8093DA00809119
:104D5000D90080FF96C080E189BD82E189BD09B498
:104D600000FEFDCF81E080934E020E94F9218091E8
:104D7000E10080FF19C08091E20080FF15C08091A2
:104D8000E2008E7F8093E2008091E2008061809358
:104D9000E2008091D80080628093D80019BC85E041
:104DA00080934E020E9416228091E10084FF2BC066
:104DB0008091E20084FF27C080E189BD82E189BD46
:104DC00089B5982F917080FFFBCF8091D8008F7D9F
:104DD0008093D8008091E1008F7E8093E1008091E4
:104DE000E2008F7E8093E2008091E20081608093F8
:104DF000E20080914A02882309F449C084E080934C
:104E00004E020E941A228091E10083FF29C0809106
:104E1000E20083FF25C08091E100877F8093E1005D
:104E200082E080934E0210924A028091E1008E7FD0
:104E30008093E1008091E2008E7F8093E200809178
:104E4000E20080618093E20042E060E080E00E9446
:104E50007B258091F00088608093F0000E941222F0
:104E6000FF91EF91BF91AF919F918F917F916F9142
:104E70005F914F913F912F910F900FBE0F901F9018
:104E8000189519BC10924E020E940B2270CF80918F
:104E9000E30087FD93E090934E02B3CF1F920F92F1
:104EA0000FB60F9211242F933F934F935F936F93FD
:104EB0007F938F939F93AF93BF93CF93DF93EF93A2
:104EC000FF93D091E900DF708091EC00C82FC17092
:104ED00080FDC0E81092E9008091F000877F809308
:104EE000F00078940E9492271092E9008091F000DF
:104EF00088608093F000CD2BCF70C093E900FF91C4
:104F0000EF91DF91CF91BF91AF919F918F917F9161
:104F10006F915F914F913F912F910F900FBE0F9026
:104F20001F9018951F93CF93DF93CDB7DEB7AA9745
:104F30000FB6F894DEBF0FBECDBF8FE492E0209194
:104F4000F100FC012193CF01F2E087359F07B9F70B
:104F50000E947A228091E80083FF1EC180914F0257
:104F6000909150029A3008F017C1E92FF0E0E45315
:104F7000F64D0C940B29803899F0823809F00CC159
:104F8000809153028F70873008F006C18093E9004A
:104F90008091EB0085FB882780F91092E90006C01C
:104FA00080914B0290914C02911182609091E800A7
:104FB000977F9093E8008093F1001092F100809128
:104FC000E8008E77E5C0882309F4D3C0823009F069
:104FD000E3C0809151028111D6C0809153028F703D
:104FE0002FEF280F263008F0D7C08093E9002091DA
:104FF000EB0020FFC8C0933031F48091EB00806259
:105000008093EB00C0C09091EB0090619093EB0017
:1050100021E030E001C0220F8A95EAF72093EA00F0
:105020001092EA008091EB008860EACF8111B4C051
:10503000109151021F778091E3008078812B80933B
:10504000E3008091E800877F8093E8000E94AF250D
:105050008091E80080FFFCCF8091E300806880931E
:10506000E30082E0111183E080934E0295C08058E6
:10507000823008F091C080915102909152028C3D93
:1050800023E09207A1F583E08A838AE289834FB700
:10509000F894DE01139620E03EE051E2E32FF0E0C9
:1050A00050935700E49120FF03C0E295EF703F5FFB
:1050B000EF708E2F90E0EA30C0F0C7968D939D93ED
:1050C0002F5F243159F74FBF8091E800877F80938D
:1050D000E8006AE270E0CE0101960E94BE24809151
:1050E000E8008B778093E80057C0C096E7CF6091C7
:1050F000530270915402AE014F5F5F4F0E94AB2389
:10510000BC01892B09F448C09091E800977F9093E7
:10511000E80089819A810E941C25E1CF8038E1F561
:105120008091E800877F8093E80080914A02809315
:10513000F10045CF811130C090915102923060F55D
:105140008091E800877F8093E80090934A020E9454
:10515000AF2580914A02882311F084E005C0809138
:10516000E30087FDFACF81E080934E020E94612226
:1051700013C080915102813079F481E0933009F0BD
:1051800080E080934C021092E9008091E800877FD4
:105190008093E8000E94AF258091E80083FF0AC059
:1051A0008091E800877F8093E8008091EB00806227
:1051B0008093EB00AA960FB6F894DEBF0FBECDBF6A
:1051C000DF91CF911F910895CF9380914E02882354
:1051D000A1F0C091E900CF709091EC00892F81700F
:1051E00090FD80E8C82B1092E9008091E80083FDD3
:1051F0000E949227CF70C093E900CF910895991B28
:1052000079E004C0991F961708F0961B881F7A95BD
:10521000C9F780950895EE0FFF1F0590F491E02DDA
:10522000099469279627692778278727782708957B
:10523000F999FECF92BD81BDF89A992780B508955E
:10524000A8E1B0E042E050E00C944C29262FF999F7
:10525000FECF92BD81BDF89A019700B4021639F0D5
:105260001FBA20BD0FB6F894FA9AF99A0FBE0895A6
:105270000396272F0E9427290E942629252F0E9466
:105280002729242F0C9427290196272F0E942729AC
:105290000C942629DC01CB01FC01F999FECF06C054
:1052A000F2BDE1BDF89A319600B40D9241505040E4
:1052B000B8F70895F894FFCFCC0BD60BFB0B070C77
:1052C000120C1D0C200C200C200C690C6C0C230CF7
:1052D000270C2F0C3C0C490C4C0C4F0C5C0C121383
:1052E00012136A136A13BC133F133F133F13D813EF
:1052F000641473147314CF143F133F13D814491557
:105300004915521552155415521552155215491575
:1053100049155915521552155915DE1FCB1FE51F9A
:10532000671EA220A220C61FA220A2201120A22018
:1053300021208820A220A220A220A2204420A22056
:10534000A2203120A220FC1FA220A220A020A02069
:10535000A020A020A020A020A020A020A0209A2053
:10536000A220DE1FBF1FA220A220A220A220A220D6
:10537000A220A220A220A220A2209A20A220A22025
:10538000C61FA2209E209E209E209E209E209E2002
:105390009E209E209E209A20BB27E327CC28E3272F
:0C53A000CC2816283728CC288E289A2804
:1053AC00F301EF208F21F2208B21872101E200E90C
:1053BC0000EA00B500B600B700CD008301CC008A2E
:1053CC0001920194012102230224022502260227C4
:1053DC00022A02B300B4006F007000818283F4F5DE
:1053EC00F63534C66697F73331E200E900EA00B5CA
:1053FC0000B600B700CD008301CC008A0192019465
:10540C00012102230224022502260227022A02B3CA
:10541C0000B4006F00700081828340226D22AE09BF
:0E542C001F094109FD0882089B08BB08D4082F
:00000001FF
